:020000040000FA
:100000000210D2A2029290A2029280AD40AC3F7F39
:100010000A7E0012002E12001DA202B322E59120DA
:10002000E2FB22020F897597A522220214118E414C
:100030008F428C438D4412162712187BE54424BF4F
:100040009000E6F0E54334FF9000E5F09000E1E534
:1000500041F0A3E542F043910422220211611219FA
:100060000F53D87853DAFE1218E0E4900086F0229D
:10007000D2DE22021464121787C290C296C280E4B4
:10008000FBFD7F101218C71216AED2AF1217FCD2AA
:10009000969000E9E004F070069000E8E004F0902B
:1000A00000E8E0B427E9A3E0B410E4C29612002609
:1000B00030030912159C8E228F238006752201754C
:1000C0002300E5237004E522640170469000DCE023
:1000D00070061217FD0202739000E8E475F0011239
:1000E00007EEFED3E5F09410EE94274002D296D3AB
:1000F0009000E9E094309000E8E09475500302022B
:1001000073E4F0A3F09000DCF0900097F0C2960248
:1001100002731217FC9000DCE014602A14700302D2
:1001200002301470030201EE14700302020724046B
:100130006003020273E52364AA6003020273900065
:10014000DC04F00202739000DC7402F0E523120973
:100150001601E5A00176A10178A50194A6019CA74E
:1001600001A9A801C2A901AFB001B7B10189C001BD
:10017000E5FF000001D7804A1205319000E77408BE
:10018000F0E4F525752409805C120531E4F5257548
:100190002402805112055474A6F08049120554744B
:1001A000A4F0752200F523803C9000E77408F090DD
:1001B00000DC7403F0802E1216AE9000EC74B1F0E7
:1001C00080237D321205141216AE7D307C757F01BE
:1001D0007E0012175E800E900097E0752200F523D6
:1001E000E49000DCF0E523900097F0020273E4F560
:1001F00025E523F524E524D39400402C12005E90DD
:1002000000DC7404F0806C74032525F582E434006E
:10021000F583E523F00525E525B52402800AE525CB
:10022000C39470404E7524709000DC7402F08043DB
:10023000E5236455703D9000DCF0C203900097E028
:100240002460601F24FC601224FE600E14600B24E6
:10025000F76017146004241070197FA0121862D27E
:10026000038010120525D2038009900004E0049059
:1002700000E7F0900097E0120916029CA10315A474
:10028000036CA50315A60431A8029CA90466B0045A
:10029000CFB10413C0042CFF000000AD900085E036
:1002A00030E7387DC8120514900097E02457600E9F
:1002B0002408701A1205257FA31215E28010121669
:1002C000AE9000ECE0900097F07FAB120563E490F5
:1002D0000085F043DA01D2030200AD1218D8502095
:1002E0007DE87C03120545900097E02457600C24BC
:1002F0000860030200AD7FA20204C17FAA0204C10C
:1003000012055B40030200AD900097E07F01B4A1AD
:10031000027F008039900085E030E71F900097E071
:10032000245A600F240260030204DB7FA41215E24A
:100330000204DB7FA61205630204DB12055B4003A7
:100340000200AD900097E07F01B4A4027F00C007D7
:100350009000EAE0FEA3E0FFEE547FFCAD07EE1252
:1003600018049200D0071209680200AD9000DCE08A
:1003700060030200AD12180F70030204062405602A
:10038000030200AD12053B900005E0FFA3E09000E2
:1003900089CFF0A3EFF0900007E0FFA3E090008B7F
:1003A000CFF0A3EFF0900003E0FFA3E090008DCF2B
:1003B000F0A3EFF07B017A0079899019FBE493FCBC
:1003C000740193FD9019FDE493F52E1217F48E2F0E
:1003D000F530901A00E493F5311217F48E32F533AC
:1003E000901A03E493F5341217F48E35F536901A0B
:1003F00006E493F537A3E493F538753900753A09A7
:10040000120E9E0200AD9000E7E07058C2807FA0FF
:100410000204C19000DCE060030200AD900003E044
:10042000FCA3E0FD1205457FA00204C17F03020486
:10043000C19000DCE060030200AD12180F601924C7
:100440000560030200AD12053B900003E0FF7C0055
:100450007D0412134D0200AD9000E7E07006C280EB
:100460007FA0805D80619000DCE060030200AD123F
:10047000180F6043240560030200AD9000E7E0140C
:10048000F012005E7E007F05C006C007900003E00A
:10049000FB25E0FFE433FE74052FF58274003EADCA
:1004A00082FCEB25E0FFE52424FEC39FFBD007D0B0
:1004B000061210310200AD9000E7E0700AC2807FA2
:1004C000A01218430200ADE4900086F00200AD9047
:1004D0000085E030E7107FB11211E6E4900085F06E
:1004E00043DA010200AD7E007FEA121506400302E6
:1004F00000AD9000EAE0FCA3E0FDEC547FFEAF0508
:10050000C006C007EC1218049200D007D006120CE7
:10051000FA0200AD7C007F017E0012175ED29612B7
:10052000001DC296221216AE9000ECE0900097F0EB
:100530002212005E9000DC7404F0229000E7E014C8
:10054000F012005E227F017E0012175ED29612002A
:100550001DC296221216AE9000EC227E007FEA1297
:10056000150622900085E0547FFD121551228F2937
:10057000E4F536EF25E025E02468F8E6701EEF2567
:10058000E025E02469F876087E007F707D007B011D
:100590007A00790312093CE4900079F0AB2CAA2D83
:1005A000A92EC001120B4B2466F9E7540F120C87D9
:1005B000120B6AD0011214B7503D120B4B2466F98E
:1005C000E7540FFF120C87120C74300101B3403155
:1005D000EF700A900077E52AF0A3E52BF0120B4BA1
:1005E000120C932401FFEFFEEC54F04EFEEDFF12CF
:1005F0000B4B120C7E800A120B4B2466F874F056DB
:10060000F6AB2CAA2DA92EC001120B4B120C9F1277
:100610000BB5120CAB120B6AD0011214B750521268
:100620000B4B120C9F120BB5FF120CAB5408FE12B1
:100630000C76300101B34043EF700A900087E52A41
:10064000F0A3E52BF0120B4B120BA62401FFE433B1
:10065000FEEFC4F8540FC868FFEEC454F048FEED36
:10066000540FFDEC4EFEED4FFF120B4B120C7E8033
:100670000A120B4B2467F8740F56F6120B4B120C30
:1006800093FB700F120BAE700A120B312469F8E461
:10069000F6C322120B4B2468F8E535146670037517
:1006A0003601C3E53195366B7020D290120B4B2486
:1006B00066F874F056F6740F0856120B4A2468F860
:1006C00006120B4B2469F816804C120B4B120BA62A
:1006D000FFC3E53495366F703DD290120B4B246604
:1006E000F8EC54F0FEED540FA60608120B4A2468ED
:1006F000F806120B4B2469F816120B4B120BBCE0D8
:10070000FF120B4B2469F8E6FE7401A8060880026C
:10071000C333D8FC4FF0120B4B2469F8E670171264
:100720000B4B120BBC120C30FF121816EFF0120B11
:100730004B2469F87608120B4B2468F8E6C395350C
:1007400040311218D05005E4900084F0120C2D6056
:10075000181218E07D207C037F017E0012173512ED
:100760000CB7A3E529F04480F0120B312469F8E4BA
:10077000F6D322C322BB010689828A83F02250026B
:10078000F722BBFE01F322EF8DF0A4A8F0CF8CF08E
:10079000A428CE8DF0A42EFE22BC000BBE0029EFB3
:1007A0008DF084FFADF022E4CCF875F008EF2FFF58
:1007B000EE33FEEC33FCEE9DEC984005FCEE9DFE26
:1007C0000FD5F0E9E4CEFD22EDF8F5F0EE8420D26D
:1007D0001CFEADF075F008EF2FFFED33FD400798DC
:1007E0005006D5F0F222C398FD0FD5F0EA22C5F0ED
:1007F000F8A3E028F0C5F0F8E582158270021583B1
:10080000E038F022BB0110E58229F582E5833AF554
:1008100083E0F5F0A3E0225009E92582F886F0088C
:10082000E622BBFE0AE92582F8E2F5F008E222E5BD
:10083000832AF583E993F5F0A3E9932275F008750F
:100840008200EF2FFFEE33FECD33CDCC33CCC5820B
:1008500033C5829BED9AEC99E58298400CF582EEC7
:100860009BFEED9AFDEC99FC0FD5F0D6E4CEFBE4AF
:10087000CDFAE4CCF9A88222B800C1B90059BA0077
:100880002DEC8BF084CFCECDFCE5F0CBF97818EFD2
:100890002FFFEE33FEED33FDEC33FCEB33FB10D7D3
:1008A00003994004EB99FB0FD8E5E4F9FA22781894
:1008B000EF2FFFEE33FEED33FDEC33FCC933C910EF
:1008C000D7059BE99A4007EC9BFCE99AF90FD8E021
:1008D000E4C9FAE4CCFB2275F010EF2FFFEE33FEF3
:1008E000ED33FDCC33CCC833C810D7079BEC9AE866
:1008F00099400AED9BFDEC9AFCE899F80FD5F0DAE7
:10090000E4CDFBE4CCFAE4C8F922A42582F582E523
:10091000F03583F58322D083D082F8E4937012748B
:100920000193700DA3A393F8740193F5828883E477
:10093000737402936860EFA3A3A380DFEF4E60128D
:10094000EF60010EEDBB010B89828A83F0A3DFFC0F
:10095000DEFA2289F05007F709DFFCA9F022BBFE7E
:10096000FCF309DFFCA9F0228C268D27E4F528C3CF
:10097000E5279464E52694005017E4F528E528124D
:100980000B762469F8E4F60528E528B40FEFC29049
:1009900022EF147003020A53046003020B307866DE
:1009A000E6C4540FF97065D3E5279494E5269411B5
:1009B0005003020B30300003020B30E9120C16E634
:1009C000540FFC08E6FDEC4E18F6ED08F618120C74
:1009D0000DEC540F4E18F6ED08F6900001E526F0E8
:1009E000A3E527F0AE26FF7C007D1F12079990003B
:1009F00089EEF0A3EFF07C007D03120787A3EEF0F1
:100A0000A3EFF0A3E526F0A3E527F0227866E6C47D
:100A1000540F64026003020B30120CCF752C017569
:100A20002D00752E89901BC493FE7401938E2FF5B3
:100A300030901BC6E493F531A3120B9F8E32F53331
:100A4000901BC9E493F534901BCDE493F535E4FF96
:100A500002056EE4F528120B8C120CF0FFE528124B
:100A60000C38F9EFC399506EE528120BFAF5828C19
:100A7000832FF582E43583F583E493FF120C743001
:100A80000001B35003020B24E528C454F024BEF542
:100A900082E4341B120C04F5828C83EF540775F04A
:100AA0000212090A120C06FDAF27AE261214C1E588
:100AB00028501925E025E02466F8120C0DEC540F9F
:100AC0004EFEEDFF120B8C120C7E8058120B76241A
:100AD00069F8E4F6804E120B8C120CF06970451226
:100AE0000CCFE528120B93AA06752CFF8A2DF52E44
:100AF000E528120CDA120B9D8E2FF530E528120C2A
:100B000047F531E528120CE5120B9D8E32F533E5E1
:100B100028120C56F534E528120C65F535AF28126D
:100B2000056E400C0528E528C3940F5003020A56B1
:100B300022C290E52925E025E02466F8E4F608F6CF
:100B4000E52925E025E02468F8E4F6E52925E025F7
:100B5000E022F583E493FF5408FE131313541F247B
:100B6000FF9202AB29AA2AA92BEF540775F002A421
:100B7000F58285F0832225E025E02466F8E4F60876
:100B8000F6E52825E025E02468F8E4F6E52825E0E8
:100B900025E022C454F024BEF582E4341BF583E43E
:100BA00093FE740193222466F8E6FC08E6FDECC48B
:100BB000F854F0C8EDC4540F48540F222468F8E6E6
:100BC00014131313541F2403F582E43400F5832215
:100BD000E529252BF582E43528F583E022A200E4FF
:100BE00033C433333354804526FFE527900074CF58
:100BF000F0A3EFF0E490007AF022C454F024C1F5A1
:100C000082E4341BF583E493FC74019322E6FC0830
:100C1000E6FDECC4540F2401FFEFC454F0FE22E5BE
:100C20002E25E02489F582E43400F58322900084A7
:100C3000E0FF900079E06F22C454F024C3F582E411
:100C4000341BF583E49322C454F024C6F582E434C3
:100C50001BF583E49322C454F024C9F582E4341BC9
:100C6000F583E49322C454F024CDF582E4341BF5DB
:100C700083E493225408131313541F24FF22246681
:100C8000F8A60608A607222530F582E4352FF5835D
:100C9000E493222466F8E6FC08E6FDEC540F2224D7
:100CA00066F9E7C4F854F0C809E7222533F582E471
:100CB0003532F583E49322900079E0900084F0537C
:100CC000DAFE2225E0247CF582E43400F58322A2BA
:100CD00000920185262A85272B22C454F024C4F5CE
:100CE00082E4341B22C454F024C7F582E4341B226E
:100CF0002466F8E6FEEEC4540F228E268F27C3E545
:100D0000279464E52694005003020E8C900086E040
:100D100024FE6025147003020D9B24036003020E61
:100D200091C290AF27AE261218544003020E9112C2
:100D30000BDD9000867402F022120E92503090006B
:100D40007AE094044021D290E4900000F090007387
:100D5000F0C20490007BF0900079F0900003F090D6
:100D600000867403F08025E4900086F0801E9000D9
:100D700074E0547FFEA3E0FFD3E5279FE5269E4065
:100D800005120BDD800690007AE004F090007AE016
:100D9000C394E05003020E91020E8C90007BE0049D
:100DA000F090007AE0FFA3E0D39F4003020E3A7B6D
:100DB000007A007928AF27AE26121260401F9000FB
:100DC00000E0FF94074003020E8CEF120C21E52691
:100DD000F0A3E527F08F28900000E004F03004290C
:100DE000900073E0FFC394704003020E8CA200E4F5
:100DF00033C43333335480FEE528C454F04EFE74BC
:100E0000032F120BC8EEF0802E900073E0FF120B40
:100E1000C6E0FEA200E43333333354F84528FDEE38
:100E20004DF074032F120BC8120C30FF121816EF7E
:100E3000F0900073E004F0B20422120E92504D12B2
:100E400018D05005E4900084F0120C2D603A12186E
:100E5000E07D207C037F017E00121735120CB790D5
:100E60000003E0FD900074E05480FF900000E0C4B7
:100E700054F04FFFED4F900003F0900074E0547F6A
:100E8000F0900085E04480F0C2908000E4900086FD
:100E9000F022A2009201AF27AE2612170B228B2957
:100EA0008A2A892B8C2C8D2DE4F53D753E80F53BEF
:100EB000E53BC3952E5010E52D253BF582E4352CFE
:100EC000120F4E053B80E9E4F53BE53BC3953850F6
:100ED00057E53A253DF582E43539F583E0553E7016
:100EE00019F53CE53CC39531502DE530253CF582A4
:100EF000E4352F120F4E053C80E9E4F53CE53CC398
:100F000095345013E533253CF582E43532120B520B
:100F1000120F7D053C80E6E53EC313F53E700505E6
:100F20003D753E80053B80A2E4F53BE53BC395372C
:100F30005013E536253BF582E43535120B52120F7E
:100F40007D053B80E6C2909000867405F022F58313
:100F5000E493FF5408FE131313541F24FF9202ABB3
:100F600029AA2AA92BEF540775F002A4F58285F06F
:100F700083120804F54085F03F1200032212080492
:100F8000F54085F03F12000322C0E0C0F0C083C0EE
:100F900082C0D075D000C000C001C002C003C00430
:100FA000C005C006C007E5985403F545F45298E51E
:100FB0004530E02F9000DBE0C39440502612191812
:100FC0009000DB121700EFF09000DBE004F0E0B4DB
:100FD0004002E4F09000D9E0FF9000DBE0B50703A9
:100FE0007440F0E54530E12E9000DEE0D3940040FF
:100FF0001A9000DAE02446F8E6FF1219159000DA9C
:10100000E004F09000DEE014F08002D2059000DAF7
:10101000E0B42002E4F0D007D006D005D004D0031D
:10102000D002D001D000D0D0D082D083D0F0D0E098
:10103000328E268F278C288D298B2AD200C20185DB
:101040002982852883E05488D394004003D380010B
:10105000C39201E4F52BE52BC3952A505930010DBD
:10106000120BD0C4131313540124FF8002A2009268
:1010700002852782852683C083C082120BD0FFC4DD
:101080005407D082D0831210BF30010C120BD0FF56
:10109000131313541F138002A20092028527828526
:1010A0002683C083C082120BD05407D082D0831213
:1010B00010BF052B80A0C2909000867405F02275A9
:1010C000F00212090AE0F53FA3E0F5401200039296
:1010D000002212005A787FE4F6D8FD7581A1021132
:1010E0001C020076E493A3F8E493A34003F6800186
:1010F000F208DFF48029E493A3F85407240CC8C352
:1011000033C4540F4420C8834004F456800146F68B
:10111000DFE4800B01020408102040809012D8E424
:101120007E019360BCA3FF543F30E509541FFEE4E9
:1011300093A360010ECF54C025E060A840B8E493AB
:10114000A3FAE493A3F8E493A3C8C582C8CAC583ED
:10115000CAF0A3C8C582C8CAC583CADFE9DEE78072
:10116000BEC0E0C0F0C083C082C0D075D000C00057
:10117000C001C002C003C004C005C006C007E5D856
:101180005487F521F452D8E5F730E508E5F730E665
:101190000312191F53F7DFE52130E708E5D930E0E6
:1011A0000312191EE52130E008E5DA30E0031216DB
:1011B0006BE52130E108E5DB30E003121920E52181
:1011C00030E208E5DC30E003121921D007D006D068
:1011D00005D004D003D002D001D000D0D0D082D02E
:1011E00083D0F0D0E032AE07E4F5261217D190009C
:1011F00000E004FF1217D8121259900000E0FFE53A
:1012000026C39F50141216F2E0547FFF1217D81213
:1012100016F21216EC052680E1900074E0547FFF70
:101220001217D89000741216EC121259E4F5269099
:101230000073E0FFE526C39F50177403252612169E
:10124000E00526E526541F70E612191212190B80CC
:10125000DE7F551217D802191212191212190B2219
:101260008E298F2A8B2B8A2C892DE4F52E90000055
:10127000E0FFE52EC39F505EE52AAE297803CEC37A
:1012800013CE13D8F9FDAC06E52AAE297802CEC3F9
:1012900013CE13D8F92DFFEE3CAB07FA120C1FE06A
:1012A000FEA3E0FFC39BEE9A50028004AE02AF03A0
:1012B000AA06AB07120C1FE0FCA3E0FDAF2AAE2983
:1012C0001217AE500DAB2BAA2CA92DE52E120775C7
:1012D000D322052E8097C3224200E300004200DFA4
:1012E00000004200E500004200E10000C18341002F
:1012F000ECA441008500410086004200010000424C
:10130000008700004200770000C1044100730041E3
:10131000008400410079004100000048007C00008A
:10132000000000000000410076004100DB004100A9
:10133000DD004100D9004100DA004100DE0041003B
:10134000D800C1054100DC00410097A4008F268C25
:10135000278D28EF120B93AA06F97BFFEF120BFAE9
:10136000FDEF120C38F52EEF120CDA120B9D8E2FBA
:10137000F530EF120C47F531EF120CE5120B9D8E94
:1013800032F533EF120C56F534EFC454F024CAF59D
:1013900082E4341B120B9D8E35F536EFC454F024D5
:1013A000CCF582E4341BF583E493F537EF120C653A
:1013B000F53885273985283A020E9E900076E0FDA3
:1013C000C4540F2401FBE433FAED540FF96B7001A0
:1013D000EA603DE97010E0C4540F2401FDE433FCE1
:1013E000ED64044C602A900076E0C4540FFD540F65
:1013F000120CC3EEF0A3EFF0ED04C454F0499000DA
:1014000076F0E0FFC4540FC394044004EF540FF08F
:1014100022C0E0C083C082C0D075D000C004C00527
:10142000C006C00753C87F9000E3E0FEA3E0FF4E74
:10143000700353C8FB9000DF12166050099000E360
:10144000E4F0A3F0800DC39000E4E09DF09000E391
:10145000E09CF0D007D006D005D004D0D0D082D008
:1014600083D0E032C0E0C083C082C0D075D000C05D
:1014700004C005C006C00753917F9000E5E0FEA3BD
:10148000E0FF4E70035391FB9000E112166050098B
:101490009000E5E4F0A3F0800DC39000E6E09DF03D
:1014A0009000E5E09CF0D007D006D005D004D0D065
:1014B000D082D083D0E032120804FDACF0AF2BAE66
:1014C0002A8F828E83AF05AE04121893AB07AA064B
:1014D000D3EB94F4EA940140067E017FF48004AEDD
:1014E00002AF03AA06AB07C3EB9464EA940050066C
:1014F0007E007F648004AE02AF03AA06AB07AF8212
:10150000AE831217AE22AD07AC06ABDA900076E0E0
:10151000FEC4540FFFEE540FFEB50702C32253DA88
:10152000FE900076E0FAEE120CC3E0FFA3E08D829D
:101530008C83CFF0A3EFF0EA54F0FF900076E00444
:101540004FF0540FC394044004E054F0F08BDAD30E
:1015500022AE05AD07E4FCFB7FAA1217D8AF051237
:1015600017D8EEC454F02493F582E4341DF583E4D7
:1015700093FFECC39F500774082CFC0B80F4EB0422
:10158000FF1217D3E4FCECC39B500974032C121612
:10159000E00C80F27F551217D80219129000D9E0A2
:1015A000FD9000DBE0FF9000D9E0B507057E017FEC
:1015B00000229000D9121700E0FB7A009000D9E0D9
:1015C00004F0E0B44002E4F09000D8E0FEEE420205
:1015D000E4F09000DBE0C394404002EDF0AE02AFD7
:1015E0000322AE07E4FDF5261217D1900001E0FFBB
:1015F0001217D89000011216EC900077E0FF121736
:10160000D89000771216EC900087E0FF1217D89060
:1016100000871216EC74032D1216E00DBD03F67F41
:10162000551217D8021912AB07AA06E4F9F87F4041
:101630007E427D0FFC120878A804A905AA06AB0714
:101640007F207ED77D757C01120878C3E49FFFE47C
:101650009EFE22AB07AA06E4F9F87FE87E03FD228E
:10166000E0FCA3E0FDC3EF9DEE9C22ABFBAAFCA92E
:10167000D9D3EB94CCEA940C40067A7F7BFF800FA1
:101680007C007D0AAF03AE02120787AA06AB0753A0
:10169000D9BFE4F5FAF5F989D97F002093027F01DB
:1016A000EFC433333354804AFEEBFF0213BB7E009A
:1016B0007F3C7D007B007A00796612093C7F0B122B
:1016C000191B43DA011200707D0A7C007F017E0045
:1016D00012175E12001DE4900086F0900085F02243
:1016E000F582E43400F583E0FF0217D8A3E0FF029F
:1016F00017D8E52625E02489F582E43400F5832215
:10170000E02498F582E43400F58322AD07AC06901E
:101710000074E0FAA3E0FBEA5480C41313135401ED
:101720007005300102C322AF05AE04EA547FFCAD60
:10173000031214C1228E378F388C398D3A1216530A
:1017400012163412186F9000E3E539F0A3E53AF071
:101750009000DFE537F0A3E538F043C804228E2679
:101760008F278C288D2912165312163412187B904D
:1017700000E5E528F0A3E529F09000E1E526F0A3D7
:10178000E527F04391042212002A1218E71218EEFE
:1017900012189F12190312182D1218BD1218A9122F
:1017A00018B31218871218F51219070218FCC3EDA6
:1017B0009BF582EC9AF583C3E5829FE5839E500FEB
:1017C000ED2BFDEC3AFCC3EF9DEE9C50028001C373
:1017D000227FAA1217D8AF06C2059000DDE0B42020
:1017E00002E4F09000DDE02446F8A607E004F0A350
:1017F000E004F022A3E493FE74019322E49000E855
:10180000F0A3F0225480C4131313540124FF229038
:101810000086E024FB227E1DE4FDEF30E70625E094
:101820006EFF8004EF25E0FF0DBD08EE22AF885368
:1018300088AF758CA0758DCBEF5440FEEF54104EE1
:10184000428822121862D2031216AE9000ECE09089
:101850000097F022C3EF942CEE94014003D3800153
:10186000C322AE071217D17F551217D8021912AD35
:1018700007AC06ECF5CBAF058FCA22AD07AC06EC82
:10188000F593AF058F9222C2DE75D90575F9FF7504
:10189000960122EF7802CEC313CE13D8F9FF22753A
:1018A000E34075E10175E20122E59154045391FB97
:1018B000429122758E5475892243885022E5C8547E
:1018C0000453C8FB42C82253984FEB4F4DF5982262
:1018D000E5C8C320E201D322E591C320E201D3226F
:1018E00053C8FB53C87F2275A41175D4CF2275A5A8
:1018F0004175D5772253F77F75DA302275E69075FA
:10190000A8B022E4F5A922439810223005FD22C296
:10191000DE22D299228F9922AF99228F8C22222205
:101920002222015E041A2A620802080109000190BD
:1019300004B00BB81C520A030801090001C2038459
:10194000286E020800090108014A02762A4E0208A0
:1019500000090108028A1E82071C0F8C0801080278
:101960000803016802D012C005DC0A03080109005F
:10197000024E05DC01AE348A0A0308010900012C7D
:101980000A00008C047E27F60801080308020802FA
:101990000803080401040A9A051428A00801080095
:1019A00008020802080008030172043819820208BC
:1019B00001080009029407D00FA02328080308019A
:1019C00008020801061802D000D208010A01090223
:1019D0000A0101D603FC0BFE020801080009019070
:1019E00002D0132E010A00090108023007760F32D7
:1019F0002274030801080208192203192802192A6F
:101A000002192C0200000018192E04193602193888
:101A100002193A0200000018193C03194202194445
:101A20000219460200000018194803194E02195005
:101A3000021952020000000C195404195C02195ECC
:101A40000219600200000028196204196A02196C68
:101A500002196E0200000028197004197802197A20
:101A600002197C0200000018197E05198802198AE3
:101A700004198E0419920220199404199C02199ECB
:101A80000419A20419A6022019A80319AE0219B05C
:101A90000219B2020000001119B40419BC0219BEE7
:101AA0000219C00219C2022419C40319CA0219CCAE
:101AB0000219CE0219D0022819D20319D80219DA54
:101AC0000219DC020000001419DE0319E40219E611
:101AD0000219E8020000002719EA0419F20219F4B9
:101AE0000219F60200000024015E041A2A620802AC
:101AF00008010900019004B00BB81C520A03080148
:101B0000090001C20384286E020800090108014A85
:101B100002762A4E020800090108028A1E82071C6A
:101B20000F8C080108020803016802D012C005DC0E
:101B30000A0308010900024E05DC01AE348A0A03DB
:101B400008010900012C0A00008C047E27F6080118
:101B50000803080208020803080401040A9A05148D
:101B600028A0080108000802080208000803017202
:101B700004381982020801080009029407D00FA056
:101B800023280803080108020801061802D000D221
:101B900008010A0109020A0101D603FC0BFE020832
:101BA00001080009019002D0132E010A0009010862
:101BB000023007760F3222740308010802081AE87F
:101BC000031AEE021AF0021AF202000000181AF4C8
:101BD000041AFC021AFE021B0002000000181B027D
:101BE000031B08021B0A021B0C02000000181B0E3C
:101BF000031B14021B16021B18020000000C1B1A08
:101C0000041B22021B24021B2602000000281B28A2
:101C1000041B30021B32021B3402000000281B365A
:101C2000041B3E021B40021B4202000000181B4422
:101C3000051B4E021B50041B54041B5802201B5A48
:101C4000041B62021B64041B68041B6C02201B6ED5
:101C5000031B74021B76021B7802000000111B7A22
:101C6000041B82021B84021B86021B8802241B8A1F
:101C7000031B90021B92021B94021B9602281B98C6
:101C8000031B9E021BA0021BA202000000141BA447
:101C9000031BAA021BAC021BAE02000000271BB0F4
:101CA000041BB8021BBA021BBC0200000024015E28
:101CB000041A2A62080208010900019004B00BB856
:101CC0001C520A030801090001C20384286E02089D
:101CD00000090108014A02762A4E0208000901089B
:101CE000028A1E82071C0F8C080108020803016883
:101CF00002D012C005DC0A0308010900024E05DC0F
:101D000001AE348A0A0308010900012C0A00008C84
:101D1000047E27F6080108030802080208030804E5
:101D200001040A9A051428A0080108000802080204
:101D3000080008030172043819820208010800092A
:101D4000029407D00FA02328080308010802080105
:101D5000061802D000D208010A0109020A0101D6C0
:101D600003FC0BFE020801080009019002D0132EAB
:101D7000010A00090108023007760F3222740308B5
:101D8000010802081CAE031CB4021CB6021CB802F7
:101D9000000000181CBA041CC2021CC4021CC602AB
:101DA000000000181CC8031CCE021CD0021CD2026A
:101DB000000000181CD4031CDA021CDC021CDE022A
:101DC0000000000C1CE0041CE8021CEA021CEC02EF
:101DD000000000281CEE041CF6021CF8021CFA028B
:101DE000000000281CFC041D04021D06021D080240
:101DF000000000181D0A051D14021D16041D1A04FA
:101E00001D1E02201D20041D28021D2A041D2E0453
:101E10001D3202201D34031D3A021D3C021D3E02EC
:101E2000000000111D40041D48021D4A021D4C0205
:101E30001D4E02241D50031D56021D58021D5A023C
:101E40001D5C02281D5E031D64021D66021D6802E2
:101E5000000000141D6A031D70021D72021D740231
:101E6000000000271D76041D7E021D80021D8202D7
:041E7000000000244A
:00000001FF
