:020000040000FA
:100000000210FDA2029290A2029280AD40AC3F7F0E
:100010000A7E0012002E12001DA202B322E59120DA
:10002000E2FB22020FB07597A5222202143B8E41FB
:100030008F428C438D441216111218C3E54424BF1D
:100040009000E6F0E54334FF9000E5F09000E1E534
:1000500041F0A3E542F0439104222202118C1219CF
:100060005753D87853DAFE121928E4900086F0220C
:10007000D2DE2202148E1217E8C290C296C280E429
:10008000FBFD7F1012190F121711D2AF1217C7D232
:10009000969000E9E004F070069000E8E004F0902B
:1000A00000E8E0B427E9A3E0B410E4C29612002609
:1000B0003003091216988E228F238006752201754F
:1000C0002300E5237004E522640170469000DCE023
:1000D00070061217C80202769000E8E475F001126B
:1000E00007EAFED3E5F09410EE94274002D296D3AF
:1000F0009000E9E094309000E8E09475500302022B
:1001000076E4F0A3F09000DCF0900097F0C2960245
:1001100002761217C79000DCE014602A1470030204
:1001200002381470030201EE14700302020B24045F
:100130006003020276E52364AA600302027690005F
:10014000DC04F00202769000DC7402F0E523120970
:100150001201E5A00176A10178A50194A6019CA752
:1001600001A9A801C2A901AFB001B7B10189C001BD
:10017000E5FF000001D7804A12052E9000E77408C1
:10018000F0E4F525752409805C12052EE4F525754B
:100190002402805112055174A6F080491205517451
:1001A000A4F0752200F523803C9000E77408F090DD
:1001B00000DC7403F0802E1217119000EC74B1F083
:1001C00080237D321205111217117D307C757F015D
:1001D0007E00121796800E900097E0752200F5239E
:1001E000E49000DCF0E523900097F0020276E4F55D
:1001F00025E523F524D3E5249400748094804030D1
:1002000012005E9000DC7404F0806B74032525F509
:1002100082E43400F583E523F00525E525B52402C5
:10022000800EC3E5259470748094804049752470D5
:100230009000DC7402F0803EE49000DCF0C2039099
:100240000097E02460601F24FC601224FE600E14FE
:10025000600B24F76017146004241070197FA0123B
:1002600018AAD2038010120522D20380099000043C
:10027000E0049000E7F0900097E0120912029FA1BD
:100280000316A4036BA50316A60430A8029FA904B5
:1002900065B004CEB10412C0042BFF000000AD1203
:1002A00017DA60387DC8120511900097E024576076
:1002B0000E2408701A1205227FA312152F80101227
:1002C00017119000ECE0900097F07FAB120560E40E
:1002D000900085F043DA01D2030200AD12192050DC
:1002E000207DE87C03120542900097E02457600CC3
:1002F000240860030200AD7FA20204C07FAA0204AA
:10030000C012055840030200AD900097E064A17F41
:10031000017001FF80371217DA601F900097E02408
:100320005A600F240260030204D87FA412152F0222
:1003300004D87FA61205600204D8120558400302B3
:1003400000AD900097E064A47F017001FFC00790AA
:1003500000EAE0FEA3E0FFEE547FFCAD07EE1217CB
:10036000CF9200D0071209640200AD9000DCE0607B
:10037000030200AD1217E1700302040524056003B7
:100380000200AD120538900005E0FFA3E09000895F
:10039000CFF0A3EFF0900007E0FFA3E090008BCF39
:1003A000F0A3EFF0900003E0FFA3E090008DCFF00A
:1003B000A3EFF07B017A007989901979E493FC74BA
:1003C0000193FD90197BE493F52E1217BF8E2FF544
:1003D0003090197EE493F5311217BF8E32F53390C9
:1003E0001981E493F5341217BF8E35F536901984D0
:1003F000E493F537A3E493F538753900753A09129B
:100400000EC50200AD9000E7E07058C2807FA002E8
:1004100004C09000DCE060030200AD900003E0FC4B
:10042000A3E0FD1205427FA00204C07F030204C0C6
:100430009000DCE060030200AD1217E160192405B2
:1004400060030200AD120538900003E0FF7C007DE0
:10045000041213780200AD9000E7E07006C2807FBE
:10046000A0805D80619000DCE060030200AD1217A7
:10047000E16043240560030200AD9000E7E014F062
:1004800012005E7E007F05C006C007900003E0FBFF
:1004900025E0FFE433FE74052FF58274003EAD8243
:1004A000FCEB25E0FFE52424FEC39FFBD007D0062C
:1004B0001210580200AD9000E7E0700AC2807FA0E1
:1004C00012188C0200ADE4900086F00200AD121705
:1004D000DA60107FB1121211E4900085F043DA0166
:1004E0000200AD7E007FEA1215C840030200AD9005
:1004F00000EAE0FCA3E0FDEC547FFEAF05C006C0BF
:1005000007EC1217CF9200D007D006120D0F020091
:10051000AD7C007F017E00121796D29612001DC29C
:1005200096221217119000ECE0900097F022120032
:100530005E9000DC7404F0229000E7E014F01200FA
:100540005E227F017E00121796D29612001DC2967F
:10055000221217119000EC227E007FEA1215C822A9
:10056000900085E0547FFD12157D228F29E4F53639
:10057000EF25E025E0240AF8E6701EEF25E025E0EF
:10058000240BF876087E007F707D007B017A00796D
:1005900003120938E4900079F0AB2CAA2DA92EC0E3
:1005A00001120B562408F9E7540F120C9C120B751C
:1005B000D0011214E1503D120B562408F9E7540FF4
:1005C000FF120C9C120C7F300101B34031EF700A16
:1005D000900077E52AF0A3E52BF0120B56120CA839
:1005E0002401FFEFFEEC54F04EFEEDFF120B56120D
:1005F0000C89800A120B562408F874F056F6AB2CBE
:10060000AA2DA92EC001120B56120CB4120BC01247
:100610000CC0120B75D0011214E15052120B56127D
:100620000CB4120BC0FF120CC05408FE120C813027
:100630000101B34043EF700A900087E52AF0A3E57B
:100640002BF0120B56120BB12401FFE433FEEFC462
:10065000F8540FC868FFEEC454F048FEED540FFD87
:10066000EC4EFEED4FFF120B56120C89800A120B56
:10067000562409F8740F56F6120B56120CA8FB708C
:100680000F120BB9700A120B3C240BF8E4F6C322CC
:10069000120B56240AF8E53514667003753601C34B
:1006A000E53195366B7020D290120B562408F87401
:1006B000F056F6740F0856120B55240AF806120B62
:1006C00056240BF816804B120B56120BB1FFC3E5E4
:1006D0003495366F703CD290120B562408F8EC54C7
:1006E000F0FEED540FA60608120B55240AF8061268
:1006F0000B56240BF816120B56120BC7E0FF120B09
:1007000056240BF8E6FEF87401088002C333D8FCC7
:100710004FF0120B56240BF8E67017120B56120B03
:10072000C7120C3BFF121832EFF0120B56240BF8D5
:100730007608120B56240AF8E6C395354031121993
:10074000185005E4900084F0120C38601812192833
:100750007D207C037F017E0012176D120CCCA3E577
:1007600029F04480F0120B3C240BF8E4F6D322C3AA
:1007700022BB010689828A83F0225002F722BBFE47
:1007800001F322EF8DF0A4A8F0CF8CF0A428CE8D39
:10079000F0A42EFE22BC000BBE0029EF8DF084FFDA
:1007A000ADF022E4CCF875F008EF2FFFEE33FEEC4D
:1007B00033FCEE9DEC984005FCEE9DFE0FD5F0E974
:1007C000E4CEFD22EDF8F5F0EE8420D21CFEADF073
:1007D00075F008EF2FFFED33FD4007985006D5F078
:1007E000F222C398FD0FD5F0EA22C5F0F8A3E02865
:1007F000F0C5F0F8E582158270021583E038F0222A
:10080000BB0110E58229F582E5833AF583E0F5F036
:10081000A3E0225009E92582F886F008E622BBFE13
:100820000AE92582F8E2F5F008E222E5832AF58359
:10083000E993F5F0A3E9932275F008758200EF2F94
:10084000FFEE33FECD33CDCC33CCC58233C5829B96
:10085000ED9AEC99E58298400CF582EE9BFEED9ABC
:10086000FDEC99FC0FD5F0D6E4CEFBE4CDFAE4CC58
:10087000F9A88222B800C1B90059BA002DEC8BF05A
:1008800084CFCECDFCE5F0CBF97818EF2FFFEE3317
:10089000FEED33FDEC33FCEB33FB10D70399400442
:1008A000EB99FB0FD8E5E4F9FA227818EF2FFFEE69
:1008B00033FEED33FDEC33FCC933C910D7059BE99A
:1008C0009A4007EC9BFCE99AF90FD8E0E4C9FAE4F6
:1008D000CCFB2275F010EF2FFFEE33FEED33FDCC95
:1008E00033CCC833C810D7079BEC9AE899400AED7F
:1008F0009BFDEC9AFCE899F80FD5F0DAE4CDFBE427
:10090000CCFAE4C8F922A42582F582E5F03583F516
:100910008322D083D082F8E4937012740193700D17
:10092000A3A393F8740193F5828883E4737402930C
:100930006860EFA3A3A380DFEF4E6012EF60010EAB
:10094000EDBB010B89828A83F0A3DFFCDEFA2289EA
:10095000F05007F709DFFCA9F022BBFEFCF309DF2A
:10096000FCA9F0228C268D27E4F528C3E5279464A2
:10097000E5269400501FE4F528E528C3940174800F
:100980009480500EE528120B81240BF8E4F605281C
:1009900080E7C29022EF147003020A57046003023A
:1009A0000B3B7808E6C4540FF97065D3E52794949F
:1009B000E52694115003020B3B300003020B3BE988
:1009C000120C21E6540FFC08E6FDEC4E18F6ED087B
:1009D000F618120C18EC540F4E18F6ED08F69000AD
:1009E00001E526F0A3E527F0AE26FF7C007D1F126F
:1009F0000795900089EEF0A3EFF07C007D031207CD
:100A000083A3EEF0A3EFF0A3E526F0A3E527F02201
:100A10007808E6C4540F64026003020B3B120CE436
:100A2000752C01752D00752E8990199893FE74010F
:100A3000938E2FF53090199AE493F531A3120BAAF7
:100A40008E32F53390199DE493F5349019A1E49317
:100A5000F535E4FF02056BE4F528C3E5289401743D
:100A60008094804003020B3B120B97120D05FFE5AB
:100A700028120C43F9EFC399506EE528120C05F5C6
:100A8000828C832FF582E43583F583E493FF120C87
:100A90007F300001B35003020B36E528C454F02424
:100AA00092F582E43419120C0FF5828C83EF54070F
:100AB00075F002120906120C11FDAF27AE261214B2
:100AC000EBE528501925E025E02408F8120C18EC75
:100AD000540F4EFEEDFF120B97120C898058120B2B
:100AE00081240BF8E4F6804E120B97120D05697005
:100AF00045120CE4E528120B9EAA06752CFF8A2DE0
:100B0000F52EE528120CEF120BA88E2FF530E528F4
:100B1000120C52F531E528120CFA120BA88E32F5A0
:100B200033E528120C61F534E528120C70F535AF69
:100B30002812056B40050528020A5A22C290E529B1
:100B400025E025E02408F8E4F608F6E52925E02567
:100B5000E0240AF8E4F6E52925E025E022F583E41F
:100B600093FF5408FE131313541F24FF9202AB2962
:100B7000AA2AA92BEF540775F002A4F58285F08309
:100B80002225E025E02408F8E4F608F6E52825E02B
:100B900025E0240AF8E4F6E52825E025E022C454FF
:100BA000F02492F582E43419F583E493FE74019302
:100BB000222408F8E6FC08E6FDECC4F854F0C8ED81
:100BC000C4540F48540F22240AF8E6141313135484
:100BD0001F2403F582E43400F58322E529252BF553
:100BE00082E43528F583E022A200E433C4333333B2
:100BF00054804526FFE527900074CFF0A3EFF0E482
:100C000090007AF022C454F02495F582E43419F56A
:100C100083E493FC74019322E6FC08E6FDECC454E3
:100C20000F2401FFEFC454F0FE22E52E25E02489B5
:100C3000F582E43400F58322900084E0FF9000798F
:100C4000E06F22C454F02497F582E43419F583E46C
:100C50009322C454F0249AF582E43419F583E49382
:100C600022C454F0249DF582E43419F583E49322E0
:100C7000C454F024A1F582E43419F583E49322549A
:100C800008131313541F24FF222408F8A60608A6ED
:100C90000722540FC3940474809480222530F58277
:100CA000E4352FF583E493222408F8E6FC08E6FDFA
:100CB000EC540F222408F9E7C4F854F0C809E722DD
:100CC0002533F582E43532F583E49322900079E010
:100CD000900084F053DAFE2225E0247CF582E4348F
:100CE00000F58322A200920185262A85272B22C4A3
:100CF00054F02498F582E4341922C454F0249BF56E
:100D000082E43419222408F8E6FEEEC4540F228E41
:100D1000268F27C3E5279464E52694005003020E2E
:100D2000B3900086E024FE6025147003020DB52404
:100D3000036003020EB8C290AF27AE2612189D4082
:100D400003020EB8120BE89000867402F022120E15
:100D5000B9503190007AE0120C954021D290E49085
:100D60000000F0900073F0C20490007BF0900079D6
:100D7000F0900003F09000867403F08025E490006A
:100D800086F0801E900074E0547FFEA3E0FFD3E560
:100D9000279FE5269E4005120BE8800690007AE02A
:100DA00004F090007AE0C394E074809480500302D1
:100DB0000EB8020EB390007BE004F090007AE0FFE2
:100DC000A3E0D39F4003020E5F7B007A007928AF37
:100DD00027AE2612128B4026900000E09407748004
:100DE00094804003020EB3900000E0FF120C2CE54B
:100DF00026F0A3E527F08F28900000E004F03004EF
:100E00002D900073E0FFC3947074809480400302BF
:100E10000EB3A200E433C43333335480FEE528C458
:100E200054F04EFE74032F120BD3EEF0802E900080
:100E300073E0FF120BD1E0FEA200E43333333354EE
:100E4000F84528FDEE4DF074032F120BD3120C3B26
:100E5000FF121832EFF0900073E004F0B204221297
:100E60000EB9504F1219185005E4900084F0120C7E
:100E700038602C1219287D207C037F017E00121718
:100E80006D120CCC900003E0FD900074E05480FFE4
:100E9000900000E0C454F04FFFED4F900003F0903D
:100EA0000074E0547FF0900085E04480F0C290E44C
:100EB000A3F022E4900086F022A2009201AF27AEB8
:100EC00026121743228B298A2A892B8C2C8D2DE4FC
:100ED000F53D753E80F53BE53BC3952E5010E52D65
:100EE000253BF582E4352C120F75053B80E9E4F5CE
:100EF0003BE53BC395385057E53A253DF582E4354F
:100F000039F583E0553E7019F53CE53CC395315009
:100F10002DE530253CF582E4352F120F75053C8018
:100F2000E9E4F53CE53CC395345013E533253CF545
:100F300082E43532120B5D120FA4053C80E6E53EDB
:100F4000C313F53E7005053D753E80053B80A2E468
:100F5000F53BE53BC395375013E536253BF582E479
:100F60003535120B5D120FA4053B80E6C290900050
:100F7000867405F022F583E493FF5408FE131313DF
:100F8000541F24FF9202AB29AA2AA92BEF540775FC
:100F9000F002A4F58285F083120800F54085F03F49
:100FA00012000322120800F54085F03F12000322D0
:100FB000C0E0C0F0C083C082C0D075D000C000C007
:100FC00001C002C003C004C005C006C007E59854B4
:100FD00003F545F45298E54530E02B1216FA5026F9
:100FE0001219609000DB121706EFF09000DBE004AE
:100FF000F0E064407001F09000D9E0FF9000DBE089
:10100000B507037440F0E54530E1329000DEE0D3EF
:10101000940074809480401A9000DAE02446F8E648
:10102000FF12195D9000DAE004F09000DEE014F0A9
:101030008002D2059000DAE064207001F0D007D081
:1010400006D005D004D003D002D001D000D0D0D03B
:1010500082D083D0F0D0E0328E268F278C288D2945
:101060008B2AD200C201852982852883E05488D347
:101070009400748094804003D38001C39201E4F50E
:101080002BE52BC3952A505930010D120BDBC413ED
:101090001313540124FF8002A20092028527828547
:1010A0002683C083C082120BDBFFC45407D082D0DA
:1010B000831210EA30010C120BDBFF131313541FC1
:1010C000138002A2009202852782852683C083C0F6
:1010D00082120BDB5407D082D0831210EA052B80DA
:1010E000A0C2909000867405F02275F002120906E5
:1010F000E0F53FA3E0F54012000392002212005AEF
:10110000787FE4F6D8FD758165021147020076E428
:1011100093A3F8E493A34003F68001F208DFF48080
:1011200029E493A3F85407240CC8C333C4540F44D0
:1011300020C8834004F456800146F6DFE4800B01AA
:1011400002040810204080901303E47E019360BCE9
:10115000A3FF543F30E509541FFEE493A360010E42
:10116000CF54C025E060A840B8E493A3FAE493A369
:10117000F8E493A3C8C582C8CAC583CAF0A3C8C58A
:1011800082C8CAC583CADFE9DEE780BEC0E0C0F01E
:10119000C083C082C0D075D000C000C001C002C0F2
:1011A00003C004C005C006C007E5D85487F521F484
:1011B00052D8E5F730E508E5F730E6031219675332
:1011C000F7DFE52130E708E5D930E003121966E5DD
:1011D0002130E008E5DA30E003121655E52130E170
:1011E00008E5DB30E003121968E52130E208E5DCB0
:1011F00030E003121969D007D006D005D004D0031F
:10120000D002D001D000D0D0D082D083D0F0D0E0B6
:1012100032AE07E4F52612180F900000E004FF122A
:101220001816121284900000E0FFE526C39F5014A8
:101230001216ECE0547FFF1218161216EC1216E686
:10124000052680E1900074E0547FFF12181690008C
:10125000741216E6121284E4F526900073E0FFE59E
:1012600026C39F5017740325261216DA0526E52695
:10127000541F70E612195A12195380DE7F55121846
:101280001602195A12195A121953228E298F2A8BB3
:101290002B8A2C892DE4F52E900000E0FFE52EC36B
:1012A0009F505EAE29E52A7803CEC313CE13D8F93A
:1012B000FDAC06AE29E52A7802CEC313CE13D8F9C9
:1012C0002DFFEE3CAB07FA120C2AE0FEA3E0FFC3B1
:1012D0009BEE9A50028004AE02AF03AA06AB07123F
:1012E0000C2AE0FCA3E0FDAF2AAE29121854500DE1
:1012F000AB2BAA2CA92DE52E120771D322052E8027
:1013000097C3224200E300004200DF00004200E5F4
:1013100000004200E10000C1834100ECA4410085CF
:1013200000410086004200010000420087000042A8
:1013300000770000C10441007300410084004100B7
:1013400079004100000048007C000000000000001F
:1013500000410076004100DB004100DD004100D982
:10136000004100DA004100DE004100D800C1054123
:1013700000DC00410097A4008F268C278D28EF12F7
:101380000B9EAA06F97BFFEF120C05FDEF120C4332
:10139000F52EEF120CEF120BA88E2FF530EF120C7A
:1013A00052F531EF120CFA120BA88E32F533EF1210
:1013B0000C61F534EFC454F0249EF582E434191224
:1013C0000BA88E35F536EFC454F024A0F582E43432
:1013D00019F583E493F537EF120C70F5388527394A
:1013E00085283A020EC5900076E0FDC4540F240112
:1013F000FBE433FAED540FF9FD6B7001EA603BED4D
:101400007010E0C4540F2401FDE433FCED64044C7F
:101410006028900076E0C4540FFD540F120CD8EEF3
:10142000F0A3EFF0ED04C454F049900076F0E0FF33
:10143000C4120C924004EF540FF022C0E0C083C0ED
:1014400082C0D075D000C004C005C006C00753C814
:101450007F9000E3E0FEA3E0FF4E700353C8FB90D3
:1014600000DF12164A50099000E3E4F0A3F0800D6B
:10147000C39000E4E09DF09000E3E09CF0D007D042
:1014800006D005D004D0D0D082D083D0E032C0E0E6
:10149000C083C082C0D075D000C004C005C006C0E3
:1014A0000753917F9000E5E0FEA3E0FF4E700353E9
:1014B00091FB9000E112164A50099000E5E4F0A378
:1014C000F0800DC39000E6E09DF09000E5E09CF018
:1014D000D007D006D005D004D0D0D082D083D0E0C1
:1014E00032120800FDACF0AF2BAE2A8F828E83AF94
:1014F00005AE041218DBAB07AA06D3EB94F4EA940A
:101500000140067E017FF48004AE02AF03AA06AB61
:1015100007C3EB9464EA940050067E007F64800465
:10152000AE02AF03AA06AB07AF82AE83021854AE79
:1015300007E4FDF52612180F900001E0FF121816BF
:101540009000011216E6900077E0FF121816900046
:10155000771216E6900087E0FF12181690008712A7
:1015600016E6EDC3940374809480500974032D1221
:1015700016DA0D80ED7F5512181602195AAE05AD18
:1015800007E4FCFB7FAA121816AF05121816EEC46A
:1015900054F024BDF582E43419F583E493FFECC3E1
:1015A0009F500774082CFC0B80F4EB04FF121811F9
:1015B000E4FCECC39B500974032C1216DA0C80F285
:1015C0007F5512181602195AAD07AC06ABDA900017
:1015D00076E0FEC4540FFFEE540FFEB50702C3229F
:1015E00053DAFE900076E0FAEE120CD8E0FFA3E0AA
:1015F0008D828C83CFF0A3EFF0EA54F0FF90007659
:10160000E0044FF0120C924004E054F0F08BDAD377
:1016100022AB07AA06E4F9F87F407E427D0FFC1258
:101620000874A804A905AA06AB077F207ED77D759C
:101630007C01120874C3E49FFFE49EFE22AB07AA5C
:1016400006E4F9F87FE87E03FD22E0FCA3E0FDC399
:10165000EF9DEE9C22ABFBAAFCA9D9D3EB94CCEA7C
:10166000940C40067A7F7BFF800F7C007D0AAF03DD
:10167000AE02120783AA06AB0753D9BFE4F5FAF509
:10168000F989D97F002093027F01EFC433333354AB
:10169000804AFEEBFF0213E69000D9E0FD9000DBEC
:1016A000E0FF9000D9E0B507057E017F00229000A1
:1016B000D9121706E0FB7A009000D9E004F0E0644C
:1016C000407001F09000D8E0FEEE4202E4F0121605
:1016D000FA4002EDF0AE02AF0322F582E43400F5E9
:1016E00083E0FF021816A3E0FF021816E52625E0A6
:1016F0002489F582E43400F583229000DBE0C39472
:10170000407480948022E02498F582E43400F583CC
:10171000227E007F047D007B007A00790812093860
:101720007F0B12196343DA011200707D0A7C007F7F
:10173000017E0012179612001DE4900086F09000C2
:1017400085F022AD07AC06900074E0FAA3E0FBEA56
:101750005480C413131354017005300102C322AF27
:1017600005AE04EA547FFCAD031214EB228E378FD2
:10177000388C398D3A12163D12161E1218B7900089
:10178000E3E539F0A3E53AF09000DFE537F0A3E5B3
:1017900038F043C804228E268F278C288D291216F4
:1017A0003D12161E1218C39000E5E528F0A3E529A6
:1017B000F09000E1E526F0A3E527F043910422A391
:1017C000E493FE74019322E49000E8F0A3F0225425
:1017D00080C4131313540124FF22900085E0548029
:1017E00022900086E024FB2212002A12192F1219DF
:1017F000361218E712194B1218761219051218F141
:101800001218FB1218CF12193D12194F0219447FFA
:10181000AA121816AF06C2059000DDE06420700120
:10182000F09000DDE02446F8A607E004F0A3E00411
:10183000F0227E1DE4FDEDC3940874809480501363
:10184000EF54806007EF25E06EFF8004EF25E0FF96
:101850000D80E322C3ED9BF582EC9AF583C3E5820C
:101860009FE5839E500EED2BFDEC3AFCC3EF9DEE01
:101870009C500122C322AF885388AF758CA0758D10
:10188000CBEF5440FEEF54104E4288221218AAD2D9
:10189000031217119000ECE0900097F022C3EF9430
:1018A0002CEE94014002D322C322AE0712180F7F00
:1018B0005512181602195AAD07AC06ECF5CBAF0558
:1018C0008FCA22AD07AC06ECF593AF058F9222C20A
:1018D000DE75D90575F9FF75960122EF7802CEC342
:1018E00013CE13D8F9FF2275E34075E10175E201CB
:1018F00022E59154045391FB429122758E547589CF
:101900002243885022E5C8540453C8FB42C82253DE
:10191000984FEB4F4DF59822E5C8C320E201D32242
:10192000E591C320E201D32253C8FB53C87F22753F
:10193000A41175D4CF2275A54175D5772253F77FB1
:1019400075DA302275E69075A8B022E4F5A9224335
:101950009810223005FD22C2DE22D299228F9922D0
:10196000AF99228F8C2222222222015E041A2A623F
:10197000080208010900196A031970021972021994
:10198000740200000018015E041A2A6208020801AD
:101990000900198603198C02198E021990020000A1
:1019A0000018015E041A2A6208020801090019A23F
:0E19B0000319A80219AA0219AC0200000018BF
:00000001FF
