:020000040000FA
:100000000210CDA2029290A2029280AD40AC3F7F3E
:100010000A7E0012002E12001DA202B322E59120DA
:10002000E2FB22020F847597A5222202140C8E4156
:100030008F428C438D44121622121876E54424BF59
:100040009000E6F0E54334FF9000E5F09000E1E534
:1000500041F0A3E542F0439104222202115C1219FF
:100060000A53D87853DAFE1218DBE4900086F022A7
:10007000D2DE2202145F121782C290C296C280E4BE
:10008000FBFD7F101218C21216A9D2AF1217F7D2B9
:10009000969000E9E004F070069000E8E004F0902B
:1000A00000E8E0B427E9A3E0B410E4C29612002609
:1000B0003003091215978E228F2380067522017551
:1000C0002300E5237004E522640170469000DCE023
:1000D00070061217F802026E9000E8E475F0011243
:1000E00007E9FED3E5F09410EE94274002D296D3B0
:1000F0009000E9E094309000E8E09475500302022B
:100100006EE4F0A3F09000DCF0900097F0C296024D
:10011000026E1217F79000DCE014602A14700302DC
:1001200002301470030201EE14700302020724046B
:10013000600302026EE52364AA600302026E90006F
:10014000DC04F002026E9000DC7402F0E523120978
:100150001101E5A00176A10178A50194A6019CA753
:1001600001A9A801C2A901AFB001B7B10189C001BD
:10017000E5FF000001D7804A12052C9000E77408C3
:10018000F0E4F525752409805C12052CE4F525754D
:100190002402805112054F74A6F0804912054F7455
:1001A000A4F0752200F523803C9000E77408F090DD
:1001B00000DC7403F0802E1216A99000EC74B1F0EC
:1001C00080237D3212050F1216A97D307C757F01C8
:1001D0007E00121759800E900097E0752200F523DB
:1001E000E49000DCF0E523900097F002026EE4F565
:1001F00025E523F524E524D39400402C12005E90DD
:1002000000DC7404F0806774032525F582E4340073
:10021000F583E523F00525E525B52402800AE525CB
:10022000C3947040497524709000DC7402F0803EE5
:10023000E49000DCF0C203900097E02460601F248B
:10024000FC601224FE600E14600B24F7601714602B
:1002500004241070197FA012185DD20380101205BB
:1002600020D2038009900004E0049000E7F09000A1
:1002700097E01209110297A10310A40367A50310C8
:10028000A6042CA80297A90461B004CAB1040EC048
:100290000427FF000000AD900085E030E7387DC8FE
:1002A00012050F900097E02457600E2408701A1270
:1002B00005207FA31215DD80101216A99000ECE036
:1002C000900097F07FAB12055EE4900085F043DA72
:1002D00001D2030200AD1218D350207DE87C031236
:1002E0000540900097E02457600C2408600302004A
:1002F000AD7FA20204BC7FAA0204BC1205564003D3
:100300000200AD900097E07F01B4A1027F00803928
:10031000900085E030E71F900097E0245A600F249A
:100320000260030204D67FA41215DD0204D67FA664
:1003300012055E0204D612055640030200AD90007D
:1003400097E07F01B4A4027F00C0079000EAE0FEBE
:10035000A3E0FFEE547FFCAD07EE1217FF9200D032
:10036000071209630200AD9000DCE060030200ADFB
:1003700012180A7003020401240560030200AD1282
:100380000536900005E0FFA3E0900089CFF0A3EFD1
:10039000F0900007E0FFA3E090008BCFF0A3EFF018
:1003A000900003E0FFA3E090008DCFF0A3EFF07B7F
:1003B000017A0079899019F6E493FC740193FD9019
:1003C00019F8E493F52E1217EF8E2FF5309019FBE4
:1003D000E493F5311217EF8E32F5339019FEE49362
:1003E000F5341217EF8E35F536901A01E493F53790
:1003F000A3E493F538753900753A09120E99020095
:10040000AD9000E7E07058C2807FA00204BC90006D
:10041000DCE060030200AD900003E0FCA3E0FD120D
:1004200005407FA00204BC7F030204BC9000DCE016
:1004300060030200AD12180A60192405600302006F
:10044000AD120536900003E0FF7C007D04121348D6
:100450000200AD9000E7E07006C2807FA0805D8062
:10046000619000DCE060030200AD12180A604324D2
:100470000560030200AD9000E7E014F012005E7E1C
:10048000007F05C006C007900003E0FB25E0FFE405
:1004900033FE74052FF58274003EAD82FCEB25E03F
:1004A000FFE52424FEC39FFBD007D00612102C02C8
:1004B00000AD9000E7E0700AC2807FA012183E02F3
:1004C00000ADE4900086F00200AD900085E030E7DA
:1004D000107FB11211E1E4900085F043DA010200CF
:1004E000AD7E007FEA12150140030200AD9000EAE4
:1004F000E0FCA3E0FDEC547FFEAF05C006C007ECB6
:100500001217FF9200D007D006120CF50200AD7C46
:10051000007F017E00121759D29612001DC296224A
:100520001216A99000ECE0900097F02212005E9065
:1005300000DC7404F0229000E7E014F012005E2268
:100540007F017E00121759D29612001DC296221208
:1005500016A99000EC227E007FEA1215012290007D
:1005600085E0547FFD12154C228F29E4F536EF25E6
:10057000E025E02468F8E6701EEF25E025E0246918
:10058000F876087E007F707D007B017A0079031287
:100590000937E4900079F0AB2CAA2DA92EC00112E6
:1005A0000B462466F9E7540F120C82120B65D0013A
:1005B0001214B2503D120B462466F9E7540FFF1295
:1005C0000C82120C6F300101B34031EF700A9000C1
:1005D00077E52AF0A3E52BF0120B46120C8E2401CE
:1005E000FFEFFEEC54F04EFEEDFF120B46120C79BD
:1005F000800A120B462466F874F056F6AB2CAA2D2E
:10060000A92EC001120B46120C9A120BB0120CA6A6
:10061000120B65D0011214B25052120B46120C9AF2
:10062000120BB0FF120CA65408FE120C713001011F
:10063000B34043EF700A900087E52AF0A3E52BF062
:10064000120B46120BA12401FFE433FEEFC4F85451
:100650000FC868FFEEC454F048FEED540FFDEC4E99
:10066000FEED4FFF120B46120C79800A120B462446
:1006700067F8740F56F6120B46120C8EFB700F12B1
:100680000BA9700A120B2C2469F8E4F6C322120B92
:10069000462468F8E53514667003753601C3E53104
:1006A00095366B7020D290120B462466F874F05683
:1006B000F6740F0856120B452468F806120B4624F0
:1006C00069F816804C120B46120BA1FFC3E5349556
:1006D000366F703DD290120B462466F8EC54F0FE53
:1006E000ED540FA60608120B452468F806120B46B7
:1006F0002469F816120B46120BB7E0FF120B4624C2
:1007000069F8E6FE7401A806088002C333D8FC4FDE
:10071000F0120B462469F8E67017120B46120BB75D
:10072000120C2BFF121811EFF0120B462469F87609
:1007300008120B462468F8E6C3953540311218CBF1
:100740005005E4900084F0120C2860181218DB7D2C
:10075000207C037F017E00121730120CB2A3E52922
:10076000F04480F0120B2C2469F8E4F6D322C32263
:10077000BB010689828A83F0225002F722BBFE0168
:10078000F322EF8DF0A4A8F0CF8CF0A428CE8DF04A
:10079000A42EFE22BC000BBE0029EF8DF084FFAD1D
:1007A000F022E4CCF875F008EF2FFFEE33FEEC33C7
:1007B000FCEE9DEC984005FCEE9DFE0FD5F0E9E4C3
:1007C000CEFD22EDF8F5F0EE8420D21CFEADF075E2
:1007D000F008EF2FFFED33FD4007985006D5F0F2FB
:1007E00022C398FD0FD5F0EA22C5F0F8A3E028F067
:1007F000C5F0F8E582158270021583E038F022BB5F
:100800000110E58229F582E5833AF583E0F5F0A34E
:10081000E0225009E92582F886F008E622BBFE0AAC
:10082000E92582F8E2F5F008E222E5832AF583E97A
:1008300093F5F0A3E9932275F008758200EF2FFF7E
:10084000EE33FECD33CDCC33CCC58233C5829BEDA8
:100850009AEC99E58298400CF582EE9BFEED9AFDAC
:10086000EC99FC0FD5F0D6E4CEFBE4CDFAE4CCF95C
:10087000A88222B800C1B90059BA002DEC8BF084CF
:10088000CFCECDFCE5F0CBF97818EF2FFFEE33FE9D
:10089000ED33FDEC33FCEB33FB10D703994004EB55
:1008A00099FB0FD8E5E4F9FA227818EF2FFFEE3321
:1008B000FEED33FDEC33FCC933C910D7059BE99A33
:1008C0004007EC9BFCE99AF90FD8E0E4C9FAE4CCC4
:1008D000FB2275F010EF2FFFEE33FEED33FDCC332E
:1008E000CCC833C810D7079BEC9AE899400AED9B17
:1008F000FDEC9AFCE899F80FD5F0DAE4CDFBE4CCF6
:10090000FAE4C8F922A42582F582E5F03583F5835F
:1009100022D083D082F8E4937012740193700DA3F7
:10092000A393F8740193F5828883E4737402936847
:1009300060EFA3A3A380DFEF4E6012EF60010EED26
:10094000BB010B89828A83F0A3DFFCDEFA2289F0E7
:100950005007F709DFFCA9F022BBFEFCF309DFFC1E
:10096000A9F0228C268D27E4F528C3E5279464E5B9
:100970002694005017E4F528E528120B712469F835
:10098000E4F60528E528B40FEFC29022EF147003B7
:10099000020A4E046003020B2B7866E6C4540FF97A
:1009A0007065D3E5279494E52694115003020B2B30
:1009B000300003020B2BE9120C11E6540FFC08E681
:1009C000FDEC4E18F6ED08F618120C08EC540F4E1C
:1009D00018F6ED08F6900001E526F0A3E527F0AE45
:1009E00026FF7C007D1F120794900089EEF0A3EF94
:1009F000F07C007D03120782A3EEF0A3EFF0A3E5E5
:100A000026F0A3E527F0227866E6C4540F6402605E
:100A100003020B2B120CCA752C01752D00752E8943
:100A2000901BBF93FE7401938E2FF530901BC1E491
:100A300093F531A3120B9A8E32F533901BC4E493D5
:100A4000F534901BC8E493F535E4FF020569E4F53D
:100A500028120B87120CEBFFE528120C33F9EFC3B9
:100A600099506EE528120BF5F5828C832FF582E400
:100A70003583F583E493FF120C6F300001B350030C
:100A8000020B1FE528C454F024B9F582E4341B128C
:100A90000BFFF5828C83EF540775F00212090512E3
:100AA0000C01FDAF27AE261214BCE528501925E035
:100AB00025E02466F8120C08EC540F4EFEEDFF12F0
:100AC0000B87120C798058120B712469F8E4F680B8
:100AD0004E120B87120CEB697045120CCAE52812F6
:100AE0000B8EAA06752CFF8A2DF52EE528120CD543
:100AF000120B988E2FF530E528120C42F531E528BF
:100B0000120CE0120B988E32F533E528120C51F5D9
:100B100034E528120C60F535AF28120569400C0544
:100B200028E528C3940F5003020A5122C290E529F8
:100B300025E025E02466F8E4F608F6E52925E02519
:100B4000E02468F8E4F6E52925E025E022F583E4D1
:100B500093FF5408FE131313541F24FF9202AB2972
:100B6000AA2AA92BEF540775F002A4F58285F08319
:100B70002225E025E02466F8E4F608F6E52825E0DD
:100B800025E02468F8E4F6E52825E025E022C454B1
:100B9000F024B9F582E4341BF583E493FE740193E9
:100BA000222466F8E6FC08E6FDECC4F854F0C8ED33
:100BB000C4540F48540F222468F8E6141313135436
:100BC0001F2403F582E43400F58322E529252BF563
:100BD00082E43528F583E022A200E433C4333333C2
:100BE00054804526FFE527900074CFF0A3EFF0E492
:100BF00090007AF022C454F024BCF582E4341BF552
:100C000083E493FC74019322E6FC08E6FDECC454F3
:100C10000F2401FFEFC454F0FE22E52E25E02489C5
:100C2000F582E43400F58322900084E0FF9000799F
:100C3000E06F22C454F024BEF582E4341BF583E453
:100C40009322C454F024C1F582E4341BF583E49369
:100C500022C454F024C4F582E4341BF583E49322C7
:100C6000C454F024C8F582E4341BF583E493225481
:100C700008131313541F24FF222466F8A60608A69F
:100C800007222530F582E4352FF583E4932224668C
:100C9000F8E6FC08E6FDEC540F222466F9E7C4F8F8
:100CA00054F0C809E7222533F582E43532F583E4B0
:100CB0009322900079E0900084F053DAFE2225E040
:100CC000247CF582E43400F58322A200920185267B
:100CD0002A85272B22C454F024BFF582E4341B223A
:100CE000C454F024C2F582E4341B222466F8E6FEE4
:100CF000EEC4540F228E268F27C3E5279464E52681
:100D000094005003020E87900086E024FE602514B4
:100D10007003020D9624036003020E8CC290AF276D
:100D2000AE2612184F4003020E8C120BD89000868C
:100D30007402F022120E8D503090007AE09404403C
:100D400021D290E4900000F0900073F0C204900073
:100D50007BF0900079F0900003F09000867403F02F
:100D60008025E4900086F0801E900074E0547FFEA1
:100D7000A3E0FFD3E5279FE5269E4005120BD88010
:100D80000690007AE004F090007AE0C394E050030B
:100D9000020E8C020E8790007BE004F090007AE057
:100DA000FFA3E0D39F4003020E357B007A00792831
:100DB000AF27AE2612125B401F900000E0FF9407A1
:100DC0004003020E87EF120C1CE526F0A3E527F086
:100DD0008F28900000E004F0300429900073E0FFB9
:100DE000C394704003020E87A200E433C43333334C
:100DF0005480FEE528C454F04EFE74032F120BC33A
:100E0000EEF0802E900073E0FF120BC1E0FEA20016
:100E1000E43333333354F84528FDEE4DF074032F9B
:100E2000120BC3120C2BFF121811EFF0900073E09D
:100E300004F0B20422120E8D504D1218CB5005E46E
:100E4000900084F0120C28603A1218DB7D207C039D
:100E50007F017E00121730120CB2900003E0FD906B
:100E60000074E05480FF900000E0C454F04FFFEDA8
:100E70004F900003F0900074E0547FF0900085E004
:100E80004480F0C2908000E4900086F022A200929C
:100E900001AF27AE26121706228B298A2A892B8CAE
:100EA0002C8D2DE4F53D753E80F53BE53BC3952E3D
:100EB0005010E52D253BF582E4352C120F49053BFA
:100EC00080E9E4F53BE53BC395385057E53A253DCD
:100ED000F582E43539F583E0553E7019F53CE53C83
:100EE000C39531502DE530253CF582E4352F120FA6
:100EF00049053C80E9E4F53CE53CC395345013E5F5
:100F000033253CF582E43532120B4D120F78053C47
:100F100080E6E53EC313F53E7005053D753E800550
:100F20003B80A2E4F53BE53BC395375013E53625FE
:100F30003BF582E43535120B4D120F78053B80E608
:100F4000C2909000867405F022F583E493FF540864
:100F5000FE131313541F24FF9202AB29AA2AA92BB4
:100F6000EF540775F002A4F58285F0831207FFF5B0
:100F70004085F03F120003221207FFF54085F03F45
:100F800012000322C0E0C0F0C083C082C0D075D080
:100F900000C000C001C002C003C004C005C006C03C
:100FA00007E5985403F545F45298E54530E02F9055
:100FB00000DBE0C3944050261219139000DB121698
:100FC000FBEFF09000DBE004F0E0B44002E4F090CE
:100FD00000D9E0FF9000DBE0B507037440F0E54581
:100FE00030E12E9000DEE0D39400401A9000DAE069
:100FF0002446F8E6FF1219109000DAE004F09000A1
:10100000DEE014F08002D2059000DAE0B42002E4C1
:10101000F0D007D006D005D004D003D002D001D044
:1010200000D0D0D082D083D0F0D0E0328E268F276F
:101030008C288D298B2AD200C2018529828528839C
:10104000E05488D394004003D38001C39201E4F5B7
:101050002BE52BC3952A505930010D120BCBC4132D
:101060001313540124FF8002A20092028527828577
:101070002683C083C082120BCBFFC45407D082D01A
:10108000831210BA30010C120BCBFF131313541F31
:10109000138002A2009202852782852683C083C026
:1010A00082120BCB5407D082D0831210BA052B804A
:1010B000A0C2909000867405F02275F00212090516
:1010C000E0F53FA3E0F54012000392002212005A1F
:1010D000787FE4F6D8FD7581A1021117020076E44D
:1010E00093A3F8E493A34003F68001F208DFF480B1
:1010F00029E493A3F85407240CC8C333C4540F4401
:1011000020C8834004F456800146F6DFE4800B01DA
:10111000020408102040809012D3E47E019360BC4A
:10112000A3FF543F30E509541FFEE493A360010E72
:10113000CF54C025E060A840B8E493A3FAE493A399
:10114000F8E493A3C8C582C8CAC583CAF0A3C8C5BA
:1011500082C8CAC583CADFE9DEE780BEC0E0C0F04E
:10116000C083C082C0D075D000C000C001C002C022
:1011700003C004C005C006C007E5D85487F521F4B4
:1011800052D8E5F730E508E5F730E60312191A53AF
:10119000F7DFE52130E708E5D930E003121919E55A
:1011A0002130E008E5DA30E003121666E52130E18F
:1011B00008E5DB30E00312191BE52130E208E5DC2D
:1011C00030E00312191CD007D006D005D004D0039C
:1011D000D002D001D000D0D0D082D083D0F0D0E0E7
:1011E00032AE07E4F5261217CC900000E004FF129F
:1011F00017D3121254900000E0FFE526C39F50144D
:101200001216EDE0547FFF1217D31216ED1216E7F7
:10121000052680E1900074E0547FFF1217D3900000
:10122000741216E7121254E4F526900073E0FFE5FD
:1012300026C39F5017740325261216DB0526E526C4
:10124000541F70E612190D12190680DE7F55121711
:10125000D302190D12190D121906228E298F2A8B0D
:101260002B8A2C892DE4F52E900000E0FFE52EC39B
:101270009F505EE52AAE297803CEC313CE13D8F96A
:10128000FDAC06E52AAE297802CEC313CE13D8F9F9
:101290002DFFEE3CAB07FA120C1AE0FEA3E0FFC3F1
:1012A0009BEE9A50028004AE02AF03AA06AB07126F
:1012B0000C1AE0FCA3E0FDAF2AAE291217A9500DCD
:1012C000AB2BAA2CA92DE52E120770D322052E8058
:1012D00097C3224200E300004200DF00004200E525
:1012E00000004200E10000C1834100ECA441008500
:1012F00000410086004200010000420087000042D9
:1013000000770000C10441007300410084004100E7
:1013100079004100000048007C000000000000004F
:1013200000410076004100DB004100DD004100D9B2
:10133000004100DA004100DE004100D800C1054153
:1013400000DC00410097A4008F268C278D28EF1227
:101350000B8EAA06F97BFFEF120BF5FDEF120C3393
:10136000F52EEF120CD5120B988E2FF530EF120CD4
:1013700042F531EF120CE0120B988E32F533EF127A
:101380000C51F534EFC454F024C5F582E4341B123B
:101390000B988E35F536EFC454F024C7F582E4344B
:1013A0001BF583E493F537EF120C60F53885273988
:1013B00085283A020E99900076E0FDC4540F24016E
:1013C000FBE433FAED540FF96B7001EA603DE9700C
:1013D00010E0C4540F2401FDE433FCED64044C60C0
:1013E0002A900076E0C4540FFD540F120CBEEEF0AC
:1013F000A3EFF0ED04C454F049900076F0E0FFC490
:10140000540FC394044004EF540FF022C0E0C08393
:10141000C082C0D075D000C004C005C006C007534C
:10142000C87F9000E3E0FEA3E0FF4E700353C8FBCB
:101430009000DF12165B50099000E3E4F0A3F08007
:101440000DC39000E4E09DF09000E3E09CF0D00735
:10145000D006D005D004D0D0D082D083D0E032C026
:10146000E0C083C082C0D075D000C004C005C006F3
:10147000C00753917F9000E5E0FEA3E0FF4E7003AC
:101480005391FB9000E112165B50099000E5E4F0E7
:10149000A3F0800DC39000E6E09DF09000E5E09C95
:1014A000F0D007D006D005D004D0D0D082D083D0E1
:1014B000E0321207FFFDACF0AF2BAE2A8F828E8395
:1014C000AF05AE0412188EAB07AA06D3EB94F4EA6C
:1014D000940140067E017FF48004AE02AF03AA06A9
:1014E000AB07C3EB9464EA940050067E007F6480EF
:1014F00004AE02AF03AA06AB07AF82AE831217A9F0
:1015000022AD07AC06ABDA900076E0FEC4540FFFC4
:10151000EE540FFEB50702C32253DAFE900076E0C8
:10152000FAEE120CBEE0FFA3E08D828C83CFF0A315
:10153000EFF0EA54F0FF900076E0044FF0540FC350
:1015400094044004E054F0F08BDAD322AE05AD07EA
:10155000E4FCFB7FAA1217D3AF051217D3EEC454D5
:10156000F0248EF582E4341DF583E493FFECC39FF1
:10157000500774082CFC0B80F4EB04FF1217CEE428
:10158000FCECC39B500974032C1216DB0C80F27F19
:10159000551217D302190D9000D9E0FD9000DBE041
:1015A000FF9000D9E0B507057E017F00229000D9A9
:1015B0001216FBE0FB7A009000D9E004F0E0B440A2
:1015C00002E4F09000D8E0FEEE4202E4F09000DB8E
:1015D000E0C394404002EDF0AE02AF0322AE07E458
:1015E000FDF5261217CC900001E0FF1217D39000F2
:1015F000011216E7900077E0FF1217D390007712E0
:1016000016E7900087E0FF1217D39000871216E7C5
:1016100074032D1216DB0DBD03F67F551217D3028E
:10162000190DAB07AA06E4F9F87F407E427D0FFC56
:10163000120873A804A905AA06AB077F207ED77DF0
:10164000757C01120873C3E49FFFE49EFE22AB0782
:10165000AA06E4F9F87FE87E03FD22E0FCA3E0FDA2
:10166000C3EF9DEE9C22ABFBAAFCA9D9D3EB94CC93
:10167000EA940C40067A7F7BFF800F7C007D0AAFE6
:1016800003AE02120782AA06AB0753D9BFE4F5FAEC
:10169000F5F989D97F002093027F01EFC4333333FA
:1016A00054804AFEEBFF0213B67E007F3C7D007B38
:1016B000007A0079661209377F0B12191643DA0196
:1016C0001200707D0A7C007F017E00121759120003
:1016D0001DE4900086F0900085F022F582E434004D
:1016E000F583E0FF0217D3A3E0FF0217D3E5262519
:1016F000E02489F582E43400F58322E02498F58221
:10170000E43400F58322AD07AC06900074E0FAA340
:10171000E0FBEA5480C41313135401700530010236
:10172000C322AF05AE04EA547FFCAD031214BC2201
:101730008E378F388C398D3A12164E12162F12189A
:101740006A9000E3E539F0A3E53AF09000DFE53771
:10175000F0A3E538F043C804228E268F278C288D0D
:101760002912164E12162F1218769000E5E528F071
:10177000A3E529F09000E1E526F0A3E527F04391E9
:10178000042212002A1218E21218E912189A1218EA
:10179000FE1218281218B81218A41218AE121882C5
:1017A0001218F01219020218F7C3ED9BF582EC9A99
:1017B000F583C3E5829FE5839E500FED2BFDEC3A48
:1017C000FCC3EF9DEE9C50028001C3227FAA12173A
:1017D000D3AF06C2059000DDE0B42002E4F0900033
:1017E000DDE02446F8A607E004F0A3E004F022A31D
:1017F000E493FE74019322E49000E8F0A3F02254F5
:1018000080C4131313540124FF22900086E024FBAC
:10181000227E1DE4FDEF30E70625E06EFF8004EF39
:1018200025E0FF0DBD08EE22AF885388AF758CA070
:10183000758DCBEF5440FEEF54104E4288221218A3
:101840005DD2031216A99000ECE0900097F022C33D
:10185000EF942CEE94014003D38001C322AE071213
:1018600017CC7F551217D302190DAD07AC06ECF556
:10187000CBAF058FCA22AD07AC06ECF593AF058F51
:101880009222C2DE75D90575F9FF75960122EF78AF
:1018900002CEC313CE13D8F9FF2275E34075E101E0
:1018A00075E20122E59154045391FB429122758E19
:1018B0005475892243885022E5C8540453C8FB421A
:1018C000C82253984FEB4F4DF59822E5C8C320E24C
:1018D00001D322E591C320E201D32253C8FB53C8B0
:1018E0007F2275A41175D4CF2275A54175D57722B5
:1018F00053F77F75DA302275E69075A8B022E4F5CB
:10190000A922439810223005FD22C2DE22D299225C
:101910008F9922AF99228F8C2222222222015E04EB
:101920001A2A62080208010900019004B00BB81CD1
:10193000520A030801090001C20384286E0208004C
:10194000090108014A02762A4E020800090108022C
:101950008A1E82071C0F8C08010802080301680216
:10196000D012C005DC0A0308010900024E05DC01A3
:10197000AE348A0A0308010900012C0A00008C0415
:101980007E27F6080108030802080208030804017C
:10199000040A9A051428A008010800080208020891
:1019A00000080301720438198202080108000902C4
:1019B0009407D00FA0232808030801080208010695
:1019C0001802D000D208010A0109020A0101D60357
:1019D000FC0BFE020801080009019002D0132E0141
:1019E0000A00090108023007760F32227403080149
:1019F000080208191D0319230219250219270200DC
:101A0000000018192904193102193302193502008E
:101A1000000018193703193D02193F02194102004D
:101A2000000018194303194902194B02194D02000D
:101A300000000C194F04195702195902195B0200D2
:101A4000000028195D04196502196702196902006E
:101A5000000028196B041973021975021977020026
:101A600000001819790519830219850419890419C8
:101A70008D0220198F04199702199904199D0419D0
:101A8000A1022019A30319A90219AB0219AD020082
:101A900000001119AF0419B70219B90219BB0219D4
:101AA000BD022419BF0319C50219C70219C90219B9
:101AB000CB022819CD0319D30219D50219D7020078
:101AC00000001419D90319DF0219E10219E3020019
:101AD00000002719E50419ED0219EF0219F10200BF
:101AE000000024015E041A2A6208020801090001AC
:101AF0009004B00BB81C520A030801090001C2038C
:101B000084286E020800090108014A02762A4E0262
:101B10000800090108028A1E82071C0F8C080108B0
:101B2000020803016802D012C005DC0A030801099B
:101B300000024E05DC01AE348A0A030801090001E7
:101B40002C0A00008C047E27F6080108030802080E
:101B5000020803080401040A9A051428A0080108D1
:101B60000008020802080008030172043819820202
:101B70000801080009029407D00FA02328080308D1
:101B80000108020801061802D000D208010A010962
:101B9000020A0101D603FC0BFE020801080009013C
:101BA0009002D0132E010A00090108023007760FB7
:101BB0003222740308010802081AE3031AE9021A20
:101BC000EB021AED02000000181AEF041AF7021ACD
:101BD000F9021AFB02000000181AFD031B03021B86
:101BE00005021B0702000000181B09031B0F021B44
:101BF00011021B13020000000C1B15041B1D021B0D
:101C00001F021B2102000000281B23041B2B021BA8
:101C10002D021B2F02000000281B31041B39021B60
:101C20003B021B3D02000000181B3F051B49021B25
:101C30004B041B4F041B5302201B55041B5D021B4E
:101C40005F041B63041B6702201B69031B6F021BDD
:101C500071021B7302000000111B75041B7D021B27
:101C60007F021B81021B8302241B85031B8B021B2B
:101C70008D021B8F021B9102281B93031B99021BD1
:101C80009B021B9D02000000141B9F031BA5021B4F
:101C9000A7021BA902000000271BAB041BB3021BF9
:101CA000B5021BB70200000024015E041A2A620874
:101CB0000208010900019004B00BB81C520A030885
:101CC00001090001C20384286E020800090108010D
:101CD0004A02762A4E020800090108028A1E82077B
:101CE0001C0F8C080108020803016802D012C0050D
:101CF000DC0A0308010900024E05DC01AE348A0A41
:101D00000308010900012C0A00008C047E27F60854
:101D1000010803080208020803080401040A9A05DE
:101D20001428A0080108000802080208000803019E
:101D30007204381982020801080009029407D00FC2
:101D4000A023280803080108020801061802D00091
:101D5000D208010A0109020A0101D603FC0BFE02A6
:101D60000801080009019002D0132E010A000901A0
:101D700008023007760F3222740308010802081C9B
:101D8000A9031CAF021CB1021CB302000000181C06
:101D9000B5041CBD021CBF021CC102000000181CBF
:101DA000C3031CC9021CCB021CCD02000000181C7E
:101DB000CF031CD5021CD7021CD9020000000C1C4A
:101DC000DB041CE3021CE5021CE702000000281CE7
:101DD000E9041CF1021CF3021CF502000000281C9F
:101DE000F7041CFF021D01021D0302000000181D64
:101DF00005051D0F021D11041D15041D1902201DCE
:101E00001B041D23021D25041D29041D2D02201D58
:101E10002F031D35021D37021D3902000000111D60
:101E20003B041D43021D45021D47021D4902241D9E
:101E30004B031D51021D53021D55021D5702281D43
:101E400059031D5F021D61021D6302000000141D85
:101E500065031D6B021D6D021D6F02000000271D32
:0F1E600071041D79021D7B021D7D02000000240C
:00000001FF
