:020000040000FA
:100000000210CFA2029290A2029280AD40AC3F7F3C
:100010000A7E0012002E12001DA202B322E59120DA
:10002000E2FB22020F867597A5222202140E8E4152
:100030008F428C438D44121624121878E54424BF55
:100040009000E6F0E54334FF9000E5F09000E1E534
:1000500041F0A3E542F0439104222202115E1219FD
:100060000C53D87853DAFE1218DDE4900086F022A3
:10007000D2DE22021461121784C290C296C280E4BA
:10008000FBFD7F101218C41216ABD2AF1217F9D2B3
:10009000969000E9E004F070069000E8E004F0902B
:1000A00000E8E0B427E9A3E0B410E4C29612002609
:1000B0003003091215998E228F238006752201754F
:1000C0002300E5237004E522640170469000DCE023
:1000D00070061217FA02026E9000E8E475F0011241
:1000E00007E9FED3E5F09410EE94274002D296D3B0
:1000F0009000E9E094309000E8E09475500302022B
:100100006EE4F0A3F09000DCF0900097F0C296024D
:10011000026E1217F99000DCE014602A14700302DA
:1001200002301470030201EE14700302020724046B
:10013000600302026EE52364AA600302026E90006F
:10014000DC04F002026E9000DC7402F0E523120978
:100150001101E5A00176A10178A50194A6019CA753
:1001600001A9A801C2A901AFB001B7B10189C001BD
:10017000E5FF000001D7804A12052C9000E77408C3
:10018000F0E4F525752409805C12052CE4F525754D
:100190002402805112054F74A6F0804912054F7455
:1001A000A4F0752200F523803C9000E77408F090DD
:1001B00000DC7403F0802E1216AB9000EC74B1F0EA
:1001C00080237D3212050F1216AB7D307C757F01C6
:1001D0007E0012175B800E900097E0752200F523D9
:1001E000E49000DCF0E523900097F002026EE4F565
:1001F00025E523F524E524D39400402C12005E90DD
:1002000000DC7404F0806774032525F582E4340073
:10021000F583E523F00525E525B52402800AE525CB
:10022000C3947040497524709000DC7402F0803EE5
:10023000E49000DCF0C203900097E02460601F248B
:10024000FC601224FE600E14600B24F7601714602B
:1002500004241070197FA012185FD20380101205B9
:1002600020D2038009900004E0049000E7F09000A1
:1002700097E01209110297A10310A40367A50310C8
:10028000A6042CA80297A90461B004CAB1040EC048
:100290000427FF000000AD900085E030E7387DC8FE
:1002A00012050F900097E02457600E2408701A1270
:1002B00005207FA31215DF80101216AB9000ECE032
:1002C000900097F07FAB12055EE4900085F043DA72
:1002D00001D2030200AD1218D550207DE87C031234
:1002E0000540900097E02457600C2408600302004A
:1002F000AD7FA20204BC7FAA0204BC1205564003D3
:100300000200AD900097E07F01B4A1027F00803928
:10031000900085E030E71F900097E0245A600F249A
:100320000260030204D67FA41215DF0204D67FA662
:1003300012055E0204D612055640030200AD90007D
:1003400097E07F01B4A4027F00C0079000EAE0FEBE
:10035000A3E0FFEE547FFCAD07EE1218019200D02F
:10036000071209630200AD9000DCE060030200ADFB
:1003700012180C7003020401240560030200AD1280
:100380000536900005E0FFA3E0900089CFF0A3EFD1
:10039000F0900007E0FFA3E090008BCFF0A3EFF018
:1003A000900003E0FFA3E090008DCFF0A3EFF07B7F
:1003B000017A0079899019F8E493FC740193FD9017
:1003C00019FAE493F52E1217F18E2FF5309019FDDE
:1003D000E493F5311217F18E32F533901A00E4935D
:1003E000F5341217F18E35F536901A03E493F5378C
:1003F000A3E493F538753900753A09120E9B020093
:10040000AD9000E7E07058C2807FA00204BC90006D
:10041000DCE060030200AD900003E0FCA3E0FD120D
:1004200005407FA00204BC7F030204BC9000DCE016
:1004300060030200AD12180C60192405600302006D
:10044000AD120536900003E0FF7C007D0412134AD4
:100450000200AD9000E7E07006C2807FA0805D8062
:10046000619000DCE060030200AD12180C604324D0
:100470000560030200AD9000E7E014F012005E7E1C
:10048000007F05C006C007900003E0FB25E0FFE405
:1004900033FE74052FF58274003EAD82FCEB25E03F
:1004A000FFE52424FEC39FFBD007D00612102E02C6
:1004B00000AD9000E7E0700AC2807FA012184002F1
:1004C00000ADE4900086F00200AD900085E030E7DA
:1004D000107FB11211E3E4900085F043DA010200CD
:1004E000AD7E007FEA12150340030200AD9000EAE2
:1004F000E0FCA3E0FDEC547FFEAF05C006C007ECB6
:100500001218019200D007D006120CF50200AD7C43
:10051000007F017E0012175BD29612001DC2962248
:100520001216AB9000ECE0900097F02212005E9063
:1005300000DC7404F0229000E7E014F012005E2268
:100540007F017E0012175BD29612001DC296221206
:1005500016AB9000EC227E007FEA12150322900079
:1005600085E0547FFD12154E228F29E4F536EF25E4
:10057000E025E02468F8E6701EEF25E025E0246918
:10058000F876087E007F707D007B017A0079031287
:100590000937E4900079F0AB2CAA2DA92EC00112E6
:1005A0000B462466F9E7540F120C82120B65D0013A
:1005B0001214B4503D120B462466F9E7540FFF1293
:1005C0000C82120C6F300101B34031EF700A9000C1
:1005D00077E52AF0A3E52BF0120B46120C8E2401CE
:1005E000FFEFFEEC54F04EFEEDFF120B46120C79BD
:1005F000800A120B462466F874F056F6AB2CAA2D2E
:10060000A92EC001120B46120C9A120BB0120CA6A6
:10061000120B65D0011214B45052120B46120C9AF0
:10062000120BB0FF120CA65408FE120C713001011F
:10063000B34043EF700A900087E52AF0A3E52BF062
:10064000120B46120BA12401FFE433FEEFC4F85451
:100650000FC868FFEEC454F048FEED540FFDEC4E99
:10066000FEED4FFF120B46120C79800A120B462446
:1006700067F8740F56F6120B46120C8EFB700F12B1
:100680000BA9700A120B2C2469F8E4F6C322120B92
:10069000462468F8E53514667003753601C3E53104
:1006A00095366B7020D290120B462466F874F05683
:1006B000F6740F0856120B452468F806120B4624F0
:1006C00069F816804C120B46120BA1FFC3E5349556
:1006D000366F703DD290120B462466F8EC54F0FE53
:1006E000ED540FA60608120B452468F806120B46B7
:1006F0002469F816120B46120BB7E0FF120B4624C2
:1007000069F8E6FE7401A806088002C333D8FC4FDE
:10071000F0120B462469F8E67017120B46120BB75D
:10072000120C2BFF121813EFF0120B462469F87607
:1007300008120B462468F8E6C3953540311218CDEF
:100740005005E4900084F0120C2860181218DD7D2A
:10075000207C037F017E00121732120CB2A3E52920
:10076000F04480F0120B2C2469F8E4F6D322C32263
:10077000BB010689828A83F0225002F722BBFE0168
:10078000F322EF8DF0A4A8F0CF8CF0A428CE8DF04A
:10079000A42EFE22BC000BBE0029EF8DF084FFAD1D
:1007A000F022E4CCF875F008EF2FFFEE33FEEC33C7
:1007B000FCEE9DEC984005FCEE9DFE0FD5F0E9E4C3
:1007C000CEFD22EDF8F5F0EE8420D21CFEADF075E2
:1007D000F008EF2FFFED33FD4007985006D5F0F2FB
:1007E00022C398FD0FD5F0EA22C5F0F8A3E028F067
:1007F000C5F0F8E582158270021583E038F022BB5F
:100800000110E58229F582E5833AF583E0F5F0A34E
:10081000E0225009E92582F886F008E622BBFE0AAC
:10082000E92582F8E2F5F008E222E5832AF583E97A
:1008300093F5F0A3E9932275F008758200EF2FFF7E
:10084000EE33FECD33CDCC33CCC58233C5829BEDA8
:100850009AEC99E58298400CF582EE9BFEED9AFDAC
:10086000EC99FC0FD5F0D6E4CEFBE4CDFAE4CCF95C
:10087000A88222B800C1B90059BA002DEC8BF084CF
:10088000CFCECDFCE5F0CBF97818EF2FFFEE33FE9D
:10089000ED33FDEC33FCEB33FB10D703994004EB55
:1008A00099FB0FD8E5E4F9FA227818EF2FFFEE3321
:1008B000FEED33FDEC33FCC933C910D7059BE99A33
:1008C0004007EC9BFCE99AF90FD8E0E4C9FAE4CCC4
:1008D000FB2275F010EF2FFFEE33FEED33FDCC332E
:1008E000CCC833C810D7079BEC9AE899400AED9B17
:1008F000FDEC9AFCE899F80FD5F0DAE4CDFBE4CCF6
:10090000FAE4C8F922A42582F582E5F03583F5835F
:1009100022D083D082F8E4937012740193700DA3F7
:10092000A393F8740193F5828883E4737402936847
:1009300060EFA3A3A380DFEF4E6012EF60010EED26
:10094000BB010B89828A83F0A3DFFCDEFA2289F0E7
:100950005007F709DFFCA9F022BBFEFCF309DFFC1E
:10096000A9F0228C268D27E4F528C3E5279464E5B9
:100970002694005017E4F528E528120B712469F835
:10098000E4F60528E528B40FEFC29022EF147003B7
:10099000020A4E046003020B2B7866E6C4540FF97A
:1009A0007065D3E5279494E52694115003020B2B30
:1009B000300003020B2BE9120C11E6540FFC08E681
:1009C000FDEC4E18F6ED08F618120C08EC540F4E1C
:1009D00018F6ED08F6900001E526F0A3E527F0AE45
:1009E00026FF7C007D1F120794900089EEF0A3EF94
:1009F000F07C007D03120782A3EEF0A3EFF0A3E5E5
:100A000026F0A3E527F0227866E6C4540F6402605E
:100A100003020B2B120CCA752C01752D00752E8943
:100A2000901BC193FE7401938E2FF530901BC3E48D
:100A300093F531A3120B9A8E32F533901BC6E493D3
:100A4000F534901BCAE493F535E4FF020569E4F53B
:100A500028120B87120CEBFFE528120C33F9EFC3B9
:100A600099506EE528120BF5F5828C832FF582E400
:100A70003583F583E493FF120C6F300001B350030C
:100A8000020B1FE528C454F024BBF582E4341B128A
:100A90000BFFF5828C83EF540775F00212090512E3
:100AA0000C01FDAF27AE261214BEE528501925E033
:100AB00025E02466F8120C08EC540F4EFEEDFF12F0
:100AC0000B87120C798058120B712469F8E4F680B8
:100AD0004E120B87120CEB697045120CCAE52812F6
:100AE0000B8EAA06752CFF8A2DF52EE528120CD543
:100AF000120B988E2FF530E528120C42F531E528BF
:100B0000120CE0120B988E32F533E528120C51F5D9
:100B100034E528120C60F535AF28120569400C0544
:100B200028E528C3940F5003020A5122C290E529F8
:100B300025E025E02466F8E4F608F6E52925E02519
:100B4000E02468F8E4F6E52925E025E022F583E4D1
:100B500093FF5408FE131313541F24FF9202AB2972
:100B6000AA2AA92BEF540775F002A4F58285F08319
:100B70002225E025E02466F8E4F608F6E52825E0DD
:100B800025E02468F8E4F6E52825E025E022C454B1
:100B9000F024BBF582E4341BF583E493FE740193E7
:100BA000222466F8E6FC08E6FDECC4F854F0C8ED33
:100BB000C4540F48540F222468F8E6141313135436
:100BC0001F2403F582E43400F58322E529252BF563
:100BD00082E43528F583E022A200E433C4333333C2
:100BE00054804526FFE527900074CFF0A3EFF0E492
:100BF00090007AF022C454F024BEF582E4341BF550
:100C000083E493FC74019322E6FC08E6FDECC454F3
:100C10000F2401FFEFC454F0FE22E52E25E02489C5
:100C2000F582E43400F58322900084E0FF9000799F
:100C3000E06F22C454F024C0F582E4341BF583E451
:100C40009322C454F024C3F582E4341BF583E49367
:100C500022C454F024C6F582E4341BF583E49322C5
:100C6000C454F024CAF582E4341BF583E49322547F
:100C700008131313541F24FF222466F8A60608A69F
:100C800007222530F582E4352FF583E4932224668C
:100C9000F8E6FC08E6FDEC540F222466F9E7C4F8F8
:100CA00054F0C809E7222533F582E43532F583E4B0
:100CB0009322900079E0900084F053DAFE2225E040
:100CC000247CF582E43400F58322A200920185267B
:100CD0002A85272B22C454F024C1F582E4341B2238
:100CE000C454F024C4F582E4341B222466F8E6FEE2
:100CF000EEC4540F228E268F27C3E5279464E52681
:100D000094005003020E89900086E024FE602514B2
:100D10007003020D9624036003020E8EC290AF276B
:100D2000AE261218514003020E8E120BD890008688
:100D30007402F022120E8F503090007AE09404403A
:100D400021D290E4900000F0900073F0C204900073
:100D50007BF0900079F0900003F09000867403F02F
:100D60008025E4900086F0801E900074E0547FFEA1
:100D7000A3E0FFD3E5279FE5269E4005120BD88010
:100D80000690007AE004F090007AE0C394E050030B
:100D9000020E8E020E8990007BE004F090007AE053
:100DA000FFA3E0D39F4003020E357B007A00792831
:100DB000AF27AE2612125D401F900000E0FF94079F
:100DC0004003020E89EF120C1CE526F0A3E527F084
:100DD0008F28900000E004F0300429900073E0FFB9
:100DE000C394704003020E89A200E433C43333334A
:100DF0005480FEE528C454F04EFE74032F120BC33A
:100E0000EEF0802E900073E0FF120BC1E0FEA20016
:100E1000E43333333354F84528FDEE4DF074032F9B
:100E2000120BC3120C2BFF121813EFF0900073E09B
:100E300004F0B20422120E8F504F1218CD5005E468
:100E4000900084F0120C28602C1218DD7D207C03A9
:100E50007F017E00121732120CB2900003E0FD9069
:100E60000074E05480FF900000E0C454F04FFFEDA8
:100E70004F900003F0900074E0547FF0900085E004
:100E80004480F0C290E4A3F022E4900086F022A215
:100E9000009201AF27AE26121708228B298A2A89D1
:100EA0002B8C2C8D2DE4F53D753E80F53BE53BC349
:100EB000952E5010E52D253BF582E4352C120F4B75
:100EC000053B80E9E4F53BE53BC395385057E53AEF
:100ED000253DF582E43539F583E0553E7019F53C42
:100EE000E53CC39531502DE530253CF582E4352FA6
:100EF000120F4B053C80E9E4F53CE53CC3953450CA
:100F000013E533253CF582E43532120B4D120F7A8E
:100F1000053C80E6E53EC313F53E7005053D753E94
:100F200080053B80A2E4F53BE53BC395375013E5D4
:100F300036253BF582E43535120B4D120F7A053B11
:100F400080E6C2909000867405F022F583E493FF5A
:100F50005408FE131313541F24FF9202AB29AA2A2C
:100F6000A92BEF540775F002A4F58285F0831207D0
:100F7000FFF54085F03F120003221207FFF5408580
:100F8000F03F12000322C0E0C0F0C083C082C0D096
:100F900075D000C000C001C002C003C004C005C0BD
:100FA00006C007E5985403F545F45298E54530E04E
:100FB0002F9000DBE0C3944050261219159000DBFF
:100FC0001216FDEFF09000DBE004F0E0B44002E424
:100FD000F09000D9E0FF9000DBE0B507037440F02B
:100FE000E54530E12E9000DEE0D39400401A9000F9
:100FF000DAE02446F8E6FF1219129000DAE004F075
:101000009000DEE014F08002D2059000DAE0B42017
:1010100002E4F0D007D006D005D004D003D002D02F
:1010200001D000D0D0D082D083D0F0D0E0328E2654
:101030008F278C288D298B2AD200C2018529828591
:101040002883E05488D394004003D38001C39201E5
:10105000E4F52BE52BC3952A505930010D120BCB2B
:10106000C4131313540124FF8002A20092028527A7
:1010700082852683C083C082120BCBFFC45407D065
:1010800082D0831210BC30010C120BCBFF13131350
:10109000541F138002A2009202852782852683C0F6
:1010A00083C082120BCB5407D082D0831210BC05B0
:1010B0002B80A0C2909000867405F02275F0021279
:1010C0000905E0F53FA3E0F540120003920022126B
:1010D000005A787FE4F6D8FD7581A102111902004B
:1010E00076E493A3F8E493A34003F68001F208DFCB
:1010F000F48029E493A3F85407240CC8C333C454E0
:101100000F4420C8834004F456800146F6DFE48093
:101110000B01020408102040809012D5E47E019358
:1011200060BCA3FF543F30E509541FFEE493A36065
:10113000010ECF54C025E060A840B8E493A3FAE4C0
:1011400093A3F8E493A3C8C582C8CAC583CAF0A311
:10115000C8C582C8CAC583CADFE9DEE780BEC0E071
:10116000C0F0C083C082C0D075D000C000C001C034
:1011700002C003C004C005C006C007E5D85487F507
:1011800021F452D8E5F730E508E5F730E603121907
:101190001C53F7DFE52130E708E5D930E0031219E9
:1011A0001BE52130E008E5DA30E003121668E5219E
:1011B00030E108E5DB30E00312191DE52130E208DB
:1011C000E5DC30E00312191ED007D006D005D004AC
:1011D000D003D002D001D000D0D0D082D083D0F0C4
:1011E000D0E032AE07E4F5261217CE900000E004FE
:1011F000FF1217D5121256900000E0FFE526C39F9C
:1012000050141216EFE0547FFF1217D51216EF128A
:1012100016E9052680E1900074E0547FFF1217D58F
:101220009000741216E9121256E4F526900073E04D
:10123000FFE526C39F5017740325261216DD0526E9
:10124000E526541F70E612190F12190880DE7F552B
:101250001217D502190F12190F121908228E298F91
:101260002A8B2B8A2C892DE4F52E900000E0FFE5D7
:101270002EC39F505EE52AAE297803CEC313CE134A
:10128000D8F9FDAC06E52AAE297802CEC313CE13F9
:10129000D8F92DFFEE3CAB07FA120C1AE0FEA3E0E2
:1012A000FFC39BEE9A50028004AE02AF03AA06ABC6
:1012B00007120C1AE0FCA3E0FDAF2AAE291217AB0F
:1012C000500DAB2BAA2CA92DE52E120770D32205A9
:1012D0002E8097C3224200E300004200DF0000425C
:1012E00000E500004200E10000C1834100ECA441A0
:1012F0000085004100860042000100004200870096
:10130000004200770000C1044100730041008400E6
:10131000410079004100000048007C00000000000E
:10132000000000410076004100DB004100DD00418B
:1013300000D9004100DA004100DE004100D800C1C0
:10134000054100DC00410097A4008F268C278D28E2
:10135000EF120B8EAA06F97BFFEF120BF5FDEF12D1
:101360000C33F52EEF120CD5120B988E2FF530EFB3
:10137000120C42F531EF120CE0120B988E32F5335D
:10138000EF120C51F534EFC454F024C7F582E43465
:101390001B120B988E35F536EFC454F024C9F58234
:1013A000E4341BF583E493F537EF120C60F53885D0
:1013B000273985283A020E9B900076E0FDC4540F31
:1013C0002401FBE433FAED540FF96B7001EA603D40
:1013D000E97010E0C4540F2401FDE433FCED640413
:1013E0004C602A900076E0C4540FFD540F120CBEDE
:1013F000EEF0A3EFF0ED04C454F049900076F0E075
:10140000FFC4540FC394044004EF540FF022C0E013
:10141000C083C082C0D075D000C004C005C006C063
:101420000753C87F9000E3E0FEA3E0FF4E70035334
:10143000C8FB9000DF12165D50099000E3E4F0A3B2
:10144000F0800DC39000E4E09DF09000E3E09CF09C
:10145000D007D006D005D004D0D0D082D083D0E041
:1014600032C0E0C083C082C0D075D000C004C005C7
:10147000C006C00753917F9000E5E0FEA3E0FF4E59
:1014800070035391FB9000E112165D50099000E546
:10149000E4F0A3F0800DC39000E6E09DF09000E53D
:1014A000E09CF0D007D006D005D004D0D0D082D0B8
:1014B00083D0E0321207FFFDACF0AF2BAE2A8F8253
:1014C0008E83AF05AE04121890AB07AA06D3EB9437
:1014D000F4EA940140067E017FF48004AE02AF037B
:1014E000AA06AB07C3EB9464EA940050067E007F23
:1014F000648004AE02AF03AA06AB07AF82AE8312CC
:1015000017AB22AD07AC06ABDA900076E0FEC45410
:101510000FFFEE540FFEB50702C32253DAFE900010
:1015200076E0FAEE120CBEE0FFA3E08D828C83CF52
:10153000F0A3EFF0EA54F0FF900076E0044FF0548F
:101540000FC394044004E054F0F08BDAD322AE05CC
:10155000AD07E4FCFB7FAA1217D5AF051217D5EE35
:10156000C454F02490F582E4341DF583E493FFEC39
:10157000C39F500774082CFC0B80F4EB04FF121778
:10158000D0E4FCECC39B500974032C1216DD0C80D4
:10159000F27F551217D502190F9000D9E0FD900087
:1015A000DBE0FF9000D9E0B507057E017F002290C7
:1015B00000D91216FDE0FB7A009000D9E004F0E0BB
:1015C000B44002E4F09000D8E0FEEE4202E4F09075
:1015D00000DBE0C394404002EDF0AE02AF0322AE68
:1015E00007E4FDF5261217CE900001E0FF1217D593
:1015F0009000011216E9900077E0FF1217D59000D5
:10160000771216E9900087E0FF1217D59000871235
:1016100016E974032D1216DD0DBD03F67F55121762
:10162000D502190FAB07AA06E4F9F87F407E427D88
:101630000FFC120873A804A905AA06AB077F207E39
:10164000D77D757C01120873C3E49FFFE49EFE22E0
:10165000AB07AA06E4F9F87FE87E03FD22E0FCA3CD
:10166000E0FDC3EF9DEE9C22ABFBAAFCA9D9D3EB16
:1016700094CCEA940C40067A7F7BFF800F7C007D3F
:101680000AAF03AE02120782AA06AB0753D9BFE422
:10169000F5FAF5F989D97F002093027F01EFC43371
:1016A000333354804AFEEBFF0213B87E007F3C7D4B
:1016B000007B007A0079661209377F0B12191843F4
:1016C000DA011200707D0A7C007F017E0012175B38
:1016D00012001DE4900086F0900085F022F582E46F
:1016E0003400F583E0FF0217D5A3E0FF0217D5E52C
:1016F0002625E02489F582E43400F58322E024984D
:10170000F582E43400F58322AD07AC06900074E066
:10171000FAA3E0FBEA5480C413131354017005309C
:101720000102C322AF05AE04EA547FFCAD031214DC
:10173000BE228E378F388C398D3A121650121631E0
:1017400012186C9000E3E539F0A3E53AF09000DF61
:10175000E537F0A3E538F043C804228E268F278CA6
:10176000288D291216501216311218789000E5E5CE
:1017700028F0A3E529F09000E1E526F0A3E527F0A5
:101780004391042212002A1218E41218EB12189C3A
:1017900012190012182A1218BA1218A61218B0122A
:1017A00018841218F21219040218F9C3ED9BF5827D
:1017B000EC9AF583C3E5829FE5839E500FED2BFDE8
:1017C000EC3AFCC3EF9DEE9C50028001C3227FAA3D
:1017D0001217D5AF06C2059000DDE0B42002E4F098
:1017E0009000DDE02446F8A607E004F0A3E004F052
:1017F00022A3E493FE74019322E49000E8F0A3F0A6
:10180000225480C4131313540124FF22900086E055
:1018100024FB227E1DE4FDEF30E70625E06EFF800D
:1018200004EF25E0FF0DBD08EE22AF885388AF75A9
:101830008CA0758DCBEF5440FEEF54104E428822A1
:1018400012185FD2031216AB9000ECE0900097F0F4
:1018500022C3EF942CEE94014003D38001C322AE47
:10186000071217CE7F551217D502190FAD07AC0618
:10187000ECF5CBAF058FCA22AD07AC06ECF593AF04
:10188000058F9222C2DE75D90575F9FF7596012282
:10189000EF7802CEC313CE13D8F9FF2275E340755B
:1018A000E10175E20122E59154045391FB4291223A
:1018B000758E5475892243885022E5C8540453C854
:1018C000FB42C82253984FEB4F4DF59822E5C8C311
:1018D00020E201D322E591C320E201D32253C8FBC9
:1018E00053C87F2275A41175D4CF2275A54175D533
:1018F000772253F77F75DA302275E69075A8B0220B
:10190000E4F5A922439810223005FD22C2DE22D23E
:1019100099228F9922AF99228F8C22222222220192
:101920005E041A2A62080208010900019004B00B43
:10193000B81C520A030801090001C20384286E0280
:101940000800090108014A02762A4E02080009012E
:1019500008028A1E82071C0F8C0801080208030176
:101960006802D012C005DC0A0308010900024E0516
:10197000DC01AE348A0A0308010900012C0A0000C8
:101980008C047E27F60801080308020802080308F1
:101990000401040A9A051428A00801080008020896
:1019A00002080008030172043819820208010800C5
:1019B00009029407D00FA023280803080108020891
:1019C00001061802D000D208010A0109020A010129
:1019D000D603FC0BFE020801080009019002D01397
:1019E0002E010A00090108023007760F3222740323
:1019F0000801080208191F031925021927021929CD
:101A00000200000018192B04193302193502193786
:101A10000200000018193903193F02194102194345
:101A20000200000018194503194B02194D02194F05
:101A3000020000000C195104195902195B02195DCA
:101A40000200000028195F04196702196902196B66
:101A50000200000028196D0419750219770219791E
:101A60000200000018197B05198502198704198BDB
:101A700004198F0220199104199902199B04199FC6
:101A80000419A3022019A50319AB0219AD0219AF5D
:101A9000020000001119B10419B90219BB0219BDE5
:101AA0000219BF022419C10319C70219C90219CBAF
:101AB0000219CD022819CF0319D50219D70219D955
:101AC000020000001419DB0319E10219E30219E511
:101AD000020000002719E70419EF0219F10219F3B7
:101AE0000200000024015E041A2A620802080109AB
:101AF00000019004B00BB81C520A03080109000150
:101B0000C20384286E020800090108014A02762AED
:101B10004E020800090108028A1E82071C0F8C0869
:101B20000108020803016802D012C005DC0A03089C
:101B3000010900024E05DC01AE348A0A03080109DE
:101B400000012C0A00008C047E27F6080108030817
:101B50000208020803080401040A9A051428A008D0
:101B6000010800080208020800080301720438197D
:101B700082020801080009029407D00FA023280858
:101B800003080108020801061802D000D208010A61
:101B90000109020A0101D603FC0BFE02080108003C
:101BA00009019002D0132E010A0009010802300732
:101BB000760F3222740308010802081AE5031AEBB3
:101BC000021AED021AEF02000000181AF1041AF9C5
:101BD000021AFB021AFD02000000181AFF031B057F
:101BE000021B07021B0902000000181B0B031B113C
:101BF000021B13021B15020000000C1B17041B1F05
:101C0000021B21021B2302000000281B25041B2DA0
:101C1000021B2F021B3102000000281B33041B3B58
:101C2000021B3D021B3F02000000181B41051B4B1D
:101C3000021B4D041B51041B5502201B57041B5F44
:101C4000021B61041B65041B6902201B6B031B71D3
:101C5000021B73021B7502000000111B77041B7F1F
:101C6000021B81021B83021B8502241B87031B8D21
:101C7000021B8F021B91021B9302281B95031B9BC7
:101C8000021B9D021B9F02000000141BA1031BA747
:101C9000021BA9021BAB02000000271BAD041BB5F1
:101CA000021BB7021BB90200000024015E041A2ABD
:101CB00062080208010900019004B00BB81C520A26
:101CC000030801090001C20384286E02080009010B
:101CD00008014A02762A4E020800090108028A1EFB
:101CE00082071C0F8C080108020803016802D01249
:101CF000C005DC0A0308010900024E05DC01AE3410
:101D00008A0A0308010900012C0A00008C047E27BE
:101D1000F608010803080208020803080401040A7F
:101D20009A051428A0080108000802080208000803
:101D3000030172043819820208010800090294079D
:101D4000D00FA02328080308010802080106180282
:101D5000D000D208010A0109020A0101D603FC0BD6
:101D6000FE020801080009019002D0132E010A00AA
:101D7000090108023007760F3222740308010802B5
:101D8000081CAB031CB1021CB3021CB5020000000E
:101D9000181CB7041CBF021CC1021CC302000000B7
:101DA000181CC5031CCB021CCD021CCF0200000076
:101DB000181CD1031CD7021CD9021CDB0200000036
:101DC0000C1CDD041CE5021CE7021CE902000000FB
:101DD000281CEB041CF3021CF5021CF70200000097
:101DE000281CF9041D01021D03021D05020000004C
:101DF000181D07051D11021D13041D17041D1B02CC
:101E0000201D1D041D25021D27041D2B041D2F024E
:101E1000201D31031D37021D39021D3B0200000049
:101E2000111D3D041D45021D47021D49021D4B02A7
:101E3000241D4D031D53021D55021D57021D59023D
:101E4000281D5B031D61021D63021D650200000069
:101E5000141D67031D6D021D6F021D71020000003D
:101E6000271D73041D7B021D7D021D7F02000000E3
:011E7000244D
:00000001FF
